{
	"Task1/ITR.sol": {
		"ITR": {
			"abi": [
				{
					"inputs": [
						{
							"internalType": "uint256",
							"name": "num",
							"type": "uint256"
						}
					],
					"name": "toRoman",
					"outputs": [
						{
							"internalType": "string",
							"name": "",
							"type": "string"
						}
					],
					"stateMutability": "view",
					"type": "function"
				}
			],
			"devdoc": {
				"kind": "dev",
				"methods": {},
				"version": 1
			},
			"evm": {
				"assembly": "    /* \"Task1/ITR.sol\":55:826  contract ITR {... */\n  mstore(0x40, 0x80)\n    /* \"Task1/ITR.sol\":112:241  string[13] private romanSymbols = [... */\n  mload(0x40)\n  dup1\n  0x01a0\n  add\n  0x40\n  mstore\n  dup1\n  mload(0x40)\n  dup1\n  0x40\n  add\n  0x40\n  mstore\n  dup1\n  0x01\n  dup2\n  mstore\n  0x20\n  add\n  0x4d00000000000000000000000000000000000000000000000000000000000000\n  dup2\n  mstore\n  pop\n  dup2\n  mstore\n  0x20\n  add\n  mload(0x40)\n  dup1\n  0x40\n  add\n  0x40\n  mstore\n  dup1\n  0x02\n  dup2\n  mstore\n  0x20\n  add\n  0x434d000000000000000000000000000000000000000000000000000000000000\n  dup2\n  mstore\n  pop\n  dup2\n  mstore\n  0x20\n  add\n  mload(0x40)\n  dup1\n  0x40\n  add\n  0x40\n  mstore\n  dup1\n  0x01\n  dup2\n  mstore\n  0x20\n  add\n  0x4400000000000000000000000000000000000000000000000000000000000000\n  dup2\n  mstore\n  pop\n  dup2\n  mstore\n  0x20\n  add\n  mload(0x40)\n  dup1\n  0x40\n  add\n  0x40\n  mstore\n  dup1\n  0x02\n  dup2\n  mstore\n  0x20\n  add\n  0x4344000000000000000000000000000000000000000000000000000000000000\n  dup2\n  mstore\n  pop\n  dup2\n  mstore\n  0x20\n  add\n  mload(0x40)\n  dup1\n  0x40\n  add\n  0x40\n  mstore\n  dup1\n  0x01\n  dup2\n  mstore\n  0x20\n  add\n  0x4300000000000000000000000000000000000000000000000000000000000000\n  dup2\n  mstore\n  pop\n  dup2\n  mstore\n  0x20\n  add\n  mload(0x40)\n  dup1\n  0x40\n  add\n  0x40\n  mstore\n  dup1\n  0x02\n  dup2\n  mstore\n  0x20\n  add\n  0x5843000000000000000000000000000000000000000000000000000000000000\n  dup2\n  mstore\n  pop\n  dup2\n  mstore\n  0x20\n  add\n  mload(0x40)\n  dup1\n  0x40\n  add\n  0x40\n  mstore\n  dup1\n  0x01\n  dup2\n  mstore\n  0x20\n  add\n  0x4c00000000000000000000000000000000000000000000000000000000000000\n  dup2\n  mstore\n  pop\n  dup2\n  mstore\n  0x20\n  add\n  mload(0x40)\n  dup1\n  0x40\n  add\n  0x40\n  mstore\n  dup1\n  0x02\n  dup2\n  mstore\n  0x20\n  add\n  0x584c000000000000000000000000000000000000000000000000000000000000\n  dup2\n  mstore\n  pop\n  dup2\n  mstore\n  0x20\n  add\n  mload(0x40)\n  dup1\n  0x40\n  add\n  0x40\n  mstore\n  dup1\n  0x01\n  dup2\n  mstore\n  0x20\n  add\n  0x5800000000000000000000000000000000000000000000000000000000000000\n  dup2\n  mstore\n  pop\n  dup2\n  mstore\n  0x20\n  add\n  mload(0x40)\n  dup1\n  0x40\n  add\n  0x40\n  mstore\n  dup1\n  0x02\n  dup2\n  mstore\n  0x20\n  add\n  0x4958000000000000000000000000000000000000000000000000000000000000\n  dup2\n  mstore\n  pop\n  dup2\n  mstore\n  0x20\n  add\n  mload(0x40)\n  dup1\n  0x40\n  add\n  0x40\n  mstore\n  dup1\n  0x01\n  dup2\n  mstore\n  0x20\n  add\n  0x5600000000000000000000000000000000000000000000000000000000000000\n  dup2\n  mstore\n  pop\n  dup2\n  mstore\n  0x20\n  add\n  mload(0x40)\n  dup1\n  0x40\n  add\n  0x40\n  mstore\n  dup1\n  0x02\n  dup2\n  mstore\n  0x20\n  add\n  0x4956000000000000000000000000000000000000000000000000000000000000\n  dup2\n  mstore\n  pop\n  dup2\n  mstore\n  0x20\n  add\n  mload(0x40)\n  dup1\n  0x40\n  add\n  0x40\n  mstore\n  dup1\n  0x01\n  dup2\n  mstore\n  0x20\n  add\n  0x4900000000000000000000000000000000000000000000000000000000000000\n  dup2\n  mstore\n  pop\n  dup2\n  mstore\n  pop\n  0x00\n  swap1\n  0x0d\n  tag_1\n  swap3\n  swap2\n  swap1\n  tag_2\n  jump\t// in\ntag_1:\n  pop\n    /* \"Task1/ITR.sol\":247:375  uint16[13] private romanValues = [... */\n  mload(0x40)\n  dup1\n  0x01a0\n  add\n  0x40\n  mstore\n  dup1\n    /* \"Task1/ITR.sol\":290:294  1000 */\n  0x03e8\n    /* \"Task1/ITR.sol\":247:375  uint16[13] private romanValues = [... */\n  0xffff\n  and\n  dup2\n  mstore\n  0x20\n  add\n    /* \"Task1/ITR.sol\":296:299  900 */\n  0x0384\n    /* \"Task1/ITR.sol\":247:375  uint16[13] private romanValues = [... */\n  0xffff\n  and\n  dup2\n  mstore\n  0x20\n  add\n    /* \"Task1/ITR.sol\":301:304  500 */\n  0x01f4\n    /* \"Task1/ITR.sol\":247:375  uint16[13] private romanValues = [... */\n  0xffff\n  and\n  dup2\n  mstore\n  0x20\n  add\n    /* \"Task1/ITR.sol\":306:309  400 */\n  0x0190\n    /* \"Task1/ITR.sol\":247:375  uint16[13] private romanValues = [... */\n  0xffff\n  and\n  dup2\n  mstore\n  0x20\n  add\n    /* \"Task1/ITR.sol\":311:314  100 */\n  0x64\n    /* \"Task1/ITR.sol\":247:375  uint16[13] private romanValues = [... */\n  0xffff\n  and\n  dup2\n  mstore\n  0x20\n  add\n    /* \"Task1/ITR.sol\":324:326  90 */\n  0x5a\n    /* \"Task1/ITR.sol\":247:375  uint16[13] private romanValues = [... */\n  0xffff\n  and\n  dup2\n  mstore\n  0x20\n  add\n    /* \"Task1/ITR.sol\":330:332  50 */\n  0x32\n    /* \"Task1/ITR.sol\":247:375  uint16[13] private romanValues = [... */\n  0xffff\n  and\n  dup2\n  mstore\n  0x20\n  add\n    /* \"Task1/ITR.sol\":335:337  40 */\n  0x28\n    /* \"Task1/ITR.sol\":247:375  uint16[13] private romanValues = [... */\n  0xffff\n  and\n  dup2\n  mstore\n  0x20\n  add\n    /* \"Task1/ITR.sol\":340:342  10 */\n  0x0a\n    /* \"Task1/ITR.sol\":247:375  uint16[13] private romanValues = [... */\n  0xffff\n  and\n  dup2\n  mstore\n  0x20\n  add\n    /* \"Task1/ITR.sol\":346:347  9 */\n  0x09\n    /* \"Task1/ITR.sol\":247:375  uint16[13] private romanValues = [... */\n  0xffff\n  and\n  dup2\n  mstore\n  0x20\n  add\n    /* \"Task1/ITR.sol\":357:358  5 */\n  0x05\n    /* \"Task1/ITR.sol\":247:375  uint16[13] private romanValues = [... */\n  0xffff\n  and\n  dup2\n  mstore\n  0x20\n  add\n    /* \"Task1/ITR.sol\":363:364  4 */\n  0x04\n    /* \"Task1/ITR.sol\":247:375  uint16[13] private romanValues = [... */\n  0xffff\n  and\n  dup2\n  mstore\n  0x20\n  add\n    /* \"Task1/ITR.sol\":368:369  1 */\n  0x01\n    /* \"Task1/ITR.sol\":247:375  uint16[13] private romanValues = [... */\n  0xffff\n  and\n  dup2\n  mstore\n  pop\n  0x0d\n  swap1\n  0x0d\n  tag_3\n  swap3\n  swap2\n  swap1\n  tag_4\n  jump\t// in\ntag_3:\n  pop\n    /* \"Task1/ITR.sol\":55:826  contract ITR {... */\n  callvalue\n  dup1\n  iszero\n  tag_5\n  jumpi\n  revert(0x00, 0x00)\ntag_5:\n  pop\n  jump(tag_6)\ntag_2:\n  dup3\n  0x0d\n  dup2\n  add\n  swap3\n  dup3\n  iszero\n  tag_7\n  jumpi\n  swap2\n  0x20\n  mul\n  dup3\n  add\ntag_8:\n  dup3\n  dup2\n  gt\n  iszero\n  tag_9\n  jumpi\n  dup3\n  mload\n  dup3\n  swap1\n  dup2\n  tag_10\n  swap2\n  swap1\n  tag_11\n  jump\t// in\ntag_10:\n  pop\n  swap2\n  0x20\n  add\n  swap2\n  swap1\n  0x01\n  add\n  swap1\n  jump(tag_8)\ntag_9:\ntag_7:\n  pop\n  swap1\n  pop\n  tag_12\n  swap2\n  swap1\n  tag_13\n  jump\t// in\ntag_12:\n  pop\n  swap1\n  jump\t// out\ntag_4:\n  dup3\n  add(0x0f, 0x0d)\n  0x10\n  swap1\n  div\n  dup2\n  add\n  swap3\n  dup3\n  iszero\n  tag_14\n  jumpi\n  swap2\n  0x20\n  mul\n  dup3\n  add\n  0x00\ntag_15:\n  dup4\n  dup3\n  gt\n  iszero\n  tag_16\n  jumpi\n  dup4\n  mload\n  dup4\n  dup3\n  0x0100\n  exp\n  dup2\n  sload\n  dup2\n  0xffff\n  mul\n  not\n  and\n  swap1\n  dup4\n  0xffff\n  and\n  mul\n  or\n  swap1\n  sstore\n  pop\n  swap3\n  0x20\n  add\n  swap3\n  0x02\n  add\n  0x20\n  dup2\n  0x01\n  add\n  div\n  swap3\n  dup4\n  add\n  swap3\n  0x01\n  sub\n  mul\n  jump(tag_15)\ntag_16:\n  dup1\n  iszero\n  tag_17\n  jumpi\n  dup3\n  dup2\n  0x0100\n  exp\n  dup2\n  sload\n  swap1\n  0xffff\n  mul\n  not\n  and\n  swap1\n  sstore\n  0x02\n  add\n  0x20\n  dup2\n  0x01\n  add\n  div\n  swap3\n  dup4\n  add\n  swap3\n  0x01\n  sub\n  mul\n  jump(tag_16)\ntag_17:\n  pop\ntag_14:\n  pop\n  swap1\n  pop\n  tag_18\n  swap2\n  swap1\n  tag_19\n  jump\t// in\ntag_18:\n  pop\n  swap1\n  jump\t// out\ntag_13:\ntag_20:\n  dup1\n  dup3\n  gt\n  iszero\n  tag_21\n  jumpi\n  0x00\n  dup2\n  dup2\n  tag_22\n  swap2\n  swap1\n  tag_23\n  jump\t// in\ntag_22:\n  pop\n  0x01\n  add\n  jump(tag_20)\ntag_21:\n  pop\n  swap1\n  jump\t// out\ntag_19:\ntag_24:\n  dup1\n  dup3\n  gt\n  iszero\n  tag_25\n  jumpi\n  0x00\n  dup2\n  0x00\n  swap1\n  sstore\n  pop\n  0x01\n  add\n  jump(tag_24)\ntag_25:\n  pop\n  swap1\n  jump\t// out\ntag_23:\n  pop\n  dup1\n  sload\n  tag_26\n  swap1\n  tag_27\n  jump\t// in\ntag_26:\n  0x00\n  dup3\n  sstore\n  dup1\n  0x1f\n  lt\n  tag_29\n  jumpi\n  pop\n  jump(tag_28)\ntag_29:\n  0x1f\n  add\n  0x20\n  swap1\n  div\n  swap1\n  0x00\n  mstore\n  keccak256(0x00, 0x20)\n  swap1\n  dup2\n  add\n  swap1\n  tag_30\n  swap2\n  swap1\n  tag_19\n  jump\t// in\ntag_30:\ntag_28:\n  pop\n  jump\t// out\n    /* \"#utility.yul\":7:106   */\ntag_31:\n    /* \"#utility.yul\":59:65   */\n  0x00\n    /* \"#utility.yul\":93:98   */\n  dup2\n    /* \"#utility.yul\":87:99   */\n  mload\n    /* \"#utility.yul\":77:99   */\n  swap1\n  pop\n    /* \"#utility.yul\":7:106   */\n  swap2\n  swap1\n  pop\n  jump\t// out\n    /* \"#utility.yul\":112:292   */\ntag_32:\n    /* \"#utility.yul\":160:237   */\n  0x4e487b7100000000000000000000000000000000000000000000000000000000\n    /* \"#utility.yul\":157:158   */\n  0x00\n    /* \"#utility.yul\":150:238   */\n  mstore\n    /* \"#utility.yul\":257:261   */\n  0x41\n    /* \"#utility.yul\":254:255   */\n  0x04\n    /* \"#utility.yul\":247:262   */\n  mstore\n    /* \"#utility.yul\":281:285   */\n  0x24\n    /* \"#utility.yul\":278:279   */\n  0x00\n    /* \"#utility.yul\":271:286   */\n  revert\n    /* \"#utility.yul\":298:478   */\ntag_33:\n    /* \"#utility.yul\":346:423   */\n  0x4e487b7100000000000000000000000000000000000000000000000000000000\n    /* \"#utility.yul\":343:344   */\n  0x00\n    /* \"#utility.yul\":336:424   */\n  mstore\n    /* \"#utility.yul\":443:447   */\n  0x22\n    /* \"#utility.yul\":440:441   */\n  0x04\n    /* \"#utility.yul\":433:448   */\n  mstore\n    /* \"#utility.yul\":467:471   */\n  0x24\n    /* \"#utility.yul\":464:465   */\n  0x00\n    /* \"#utility.yul\":457:472   */\n  revert\n    /* \"#utility.yul\":484:804   */\ntag_27:\n    /* \"#utility.yul\":528:534   */\n  0x00\n    /* \"#utility.yul\":565:566   */\n  0x02\n    /* \"#utility.yul\":559:563   */\n  dup3\n    /* \"#utility.yul\":555:567   */\n  div\n    /* \"#utility.yul\":545:567   */\n  swap1\n  pop\n    /* \"#utility.yul\":612:613   */\n  0x01\n    /* \"#utility.yul\":606:610   */\n  dup3\n    /* \"#utility.yul\":602:614   */\n  and\n    /* \"#utility.yul\":633:651   */\n  dup1\n    /* \"#utility.yul\":623:704   */\n  tag_55\n  jumpi\n    /* \"#utility.yul\":689:693   */\n  0x7f\n    /* \"#utility.yul\":681:687   */\n  dup3\n    /* \"#utility.yul\":677:694   */\n  and\n    /* \"#utility.yul\":667:694   */\n  swap2\n  pop\n    /* \"#utility.yul\":623:704   */\ntag_55:\n    /* \"#utility.yul\":751:753   */\n  0x20\n    /* \"#utility.yul\":743:749   */\n  dup3\n    /* \"#utility.yul\":740:754   */\n  lt\n    /* \"#utility.yul\":720:738   */\n  dup2\n    /* \"#utility.yul\":717:755   */\n  sub\n    /* \"#utility.yul\":714:798   */\n  tag_56\n  jumpi\n    /* \"#utility.yul\":770:788   */\n  tag_57\n  tag_33\n  jump\t// in\ntag_57:\n    /* \"#utility.yul\":714:798   */\ntag_56:\n    /* \"#utility.yul\":535:804   */\n  pop\n    /* \"#utility.yul\":484:804   */\n  swap2\n  swap1\n  pop\n  jump\t// out\n    /* \"#utility.yul\":810:951   */\ntag_34:\n    /* \"#utility.yul\":859:863   */\n  0x00\n    /* \"#utility.yul\":882:885   */\n  dup2\n    /* \"#utility.yul\":874:885   */\n  swap1\n  pop\n    /* \"#utility.yul\":905:908   */\n  dup2\n    /* \"#utility.yul\":902:903   */\n  0x00\n    /* \"#utility.yul\":895:909   */\n  mstore\n    /* \"#utility.yul\":939:943   */\n  0x20\n    /* \"#utility.yul\":936:937   */\n  0x00\n    /* \"#utility.yul\":926:944   */\n  keccak256\n    /* \"#utility.yul\":918:944   */\n  swap1\n  pop\n    /* \"#utility.yul\":810:951   */\n  swap2\n  swap1\n  pop\n  jump\t// out\n    /* \"#utility.yul\":957:1050   */\ntag_35:\n    /* \"#utility.yul\":994:1000   */\n  0x00\n    /* \"#utility.yul\":1041:1043   */\n  0x20\n    /* \"#utility.yul\":1036:1038   */\n  0x1f\n    /* \"#utility.yul\":1029:1034   */\n  dup4\n    /* \"#utility.yul\":1025:1039   */\n  add\n    /* \"#utility.yul\":1021:1044   */\n  div\n    /* \"#utility.yul\":1011:1044   */\n  swap1\n  pop\n    /* \"#utility.yul\":957:1050   */\n  swap2\n  swap1\n  pop\n  jump\t// out\n    /* \"#utility.yul\":1056:1163   */\ntag_36:\n    /* \"#utility.yul\":1100:1108   */\n  0x00\n    /* \"#utility.yul\":1150:1155   */\n  dup3\n    /* \"#utility.yul\":1144:1148   */\n  dup3\n    /* \"#utility.yul\":1140:1156   */\n  shl\n    /* \"#utility.yul\":1119:1156   */\n  swap1\n  pop\n    /* \"#utility.yul\":1056:1163   */\n  swap3\n  swap2\n  pop\n  pop\n  jump\t// out\n    /* \"#utility.yul\":1169:1562   */\ntag_37:\n    /* \"#utility.yul\":1238:1244   */\n  0x00\n    /* \"#utility.yul\":1288:1289   */\n  0x08\n    /* \"#utility.yul\":1276:1286   */\n  dup4\n    /* \"#utility.yul\":1272:1290   */\n  mul\n    /* \"#utility.yul\":1311:1408   */\n  tag_62\n    /* \"#utility.yul\":1341:1407   */\n  0xffffffffffffffffffffffffffffffffffffffffffffffffffffffffffffffff\n    /* \"#utility.yul\":1330:1339   */\n  dup3\n    /* \"#utility.yul\":1311:1408   */\n  tag_36\n  jump\t// in\ntag_62:\n    /* \"#utility.yul\":1429:1468   */\n  tag_63\n    /* \"#utility.yul\":1459:1467   */\n  dup7\n    /* \"#utility.yul\":1448:1457   */\n  dup4\n    /* \"#utility.yul\":1429:1468   */\n  tag_36\n  jump\t// in\ntag_63:\n    /* \"#utility.yul\":1417:1468   */\n  swap6\n  pop\n    /* \"#utility.yul\":1501:1505   */\n  dup1\n    /* \"#utility.yul\":1497:1506   */\n  not\n    /* \"#utility.yul\":1490:1495   */\n  dup5\n    /* \"#utility.yul\":1486:1507   */\n  and\n    /* \"#utility.yul\":1477:1507   */\n  swap4\n  pop\n    /* \"#utility.yul\":1550:1554   */\n  dup1\n    /* \"#utility.yul\":1540:1548   */\n  dup7\n    /* \"#utility.yul\":1536:1555   */\n  and\n    /* \"#utility.yul\":1529:1534   */\n  dup5\n    /* \"#utility.yul\":1526:1556   */\n  or\n    /* \"#utility.yul\":1516:1556   */\n  swap3\n  pop\n    /* \"#utility.yul\":1245:1562   */\n  pop\n  pop\n    /* \"#utility.yul\":1169:1562   */\n  swap4\n  swap3\n  pop\n  pop\n  pop\n  jump\t// out\n    /* \"#utility.yul\":1568:1645   */\ntag_38:\n    /* \"#utility.yul\":1605:1612   */\n  0x00\n    /* \"#utility.yul\":1634:1639   */\n  dup2\n    /* \"#utility.yul\":1623:1639   */\n  swap1\n  pop\n    /* \"#utility.yul\":1568:1645   */\n  swap2\n  swap1\n  pop\n  jump\t// out\n    /* \"#utility.yul\":1651:1711   */\ntag_39:\n    /* \"#utility.yul\":1679:1682   */\n  0x00\n    /* \"#utility.yul\":1700:1705   */\n  dup2\n    /* \"#utility.yul\":1693:1705   */\n  swap1\n  pop\n    /* \"#utility.yul\":1651:1711   */\n  swap2\n  swap1\n  pop\n  jump\t// out\n    /* \"#utility.yul\":1717:1859   */\ntag_40:\n    /* \"#utility.yul\":1767:1776   */\n  0x00\n    /* \"#utility.yul\":1800:1853   */\n  tag_67\n    /* \"#utility.yul\":1818:1852   */\n  tag_68\n    /* \"#utility.yul\":1827:1851   */\n  tag_69\n    /* \"#utility.yul\":1845:1850   */\n  dup5\n    /* \"#utility.yul\":1827:1851   */\n  tag_38\n  jump\t// in\ntag_69:\n    /* \"#utility.yul\":1818:1852   */\n  tag_39\n  jump\t// in\ntag_68:\n    /* \"#utility.yul\":1800:1853   */\n  tag_38\n  jump\t// in\ntag_67:\n    /* \"#utility.yul\":1787:1853   */\n  swap1\n  pop\n    /* \"#utility.yul\":1717:1859   */\n  swap2\n  swap1\n  pop\n  jump\t// out\n    /* \"#utility.yul\":1865:1940   */\ntag_41:\n    /* \"#utility.yul\":1908:1911   */\n  0x00\n    /* \"#utility.yul\":1929:1934   */\n  dup2\n    /* \"#utility.yul\":1922:1934   */\n  swap1\n  pop\n    /* \"#utility.yul\":1865:1940   */\n  swap2\n  swap1\n  pop\n  jump\t// out\n    /* \"#utility.yul\":1946:2215   */\ntag_42:\n    /* \"#utility.yul\":2056:2095   */\n  tag_72\n    /* \"#utility.yul\":2087:2094   */\n  dup4\n    /* \"#utility.yul\":2056:2095   */\n  tag_40\n  jump\t// in\ntag_72:\n    /* \"#utility.yul\":2117:2208   */\n  tag_73\n    /* \"#utility.yul\":2166:2207   */\n  tag_74\n    /* \"#utility.yul\":2190:2206   */\n  dup3\n    /* \"#utility.yul\":2166:2207   */\n  tag_41\n  jump\t// in\ntag_74:\n    /* \"#utility.yul\":2158:2164   */\n  dup5\n    /* \"#utility.yul\":2151:2155   */\n  dup5\n    /* \"#utility.yul\":2145:2156   */\n  sload\n    /* \"#utility.yul\":2117:2208   */\n  tag_37\n  jump\t// in\ntag_73:\n    /* \"#utility.yul\":2111:2115   */\n  dup3\n    /* \"#utility.yul\":2104:2209   */\n  sstore\n    /* \"#utility.yul\":2022:2215   */\n  pop\n    /* \"#utility.yul\":1946:2215   */\n  pop\n  pop\n  pop\n  jump\t// out\n    /* \"#utility.yul\":2221:2294   */\ntag_43:\n    /* \"#utility.yul\":2266:2269   */\n  0x00\n    /* \"#utility.yul\":2287:2288   */\n  0x00\n    /* \"#utility.yul\":2280:2288   */\n  swap1\n  pop\n    /* \"#utility.yul\":2221:2294   */\n  swap1\n  jump\t// out\n    /* \"#utility.yul\":2300:2489   */\ntag_44:\n    /* \"#utility.yul\":2377:2409   */\n  tag_77\n  tag_43\n  jump\t// in\ntag_77:\n    /* \"#utility.yul\":2418:2483   */\n  tag_78\n    /* \"#utility.yul\":2476:2482   */\n  dup2\n    /* \"#utility.yul\":2468:2474   */\n  dup5\n    /* \"#utility.yul\":2462:2466   */\n  dup5\n    /* \"#utility.yul\":2418:2483   */\n  tag_42\n  jump\t// in\ntag_78:\n    /* \"#utility.yul\":2353:2489   */\n  pop\n    /* \"#utility.yul\":2300:2489   */\n  pop\n  pop\n  jump\t// out\n    /* \"#utility.yul\":2495:2681   */\ntag_45:\n    /* \"#utility.yul\":2555:2675   */\ntag_80:\n    /* \"#utility.yul\":2572:2575   */\n  dup2\n    /* \"#utility.yul\":2565:2570   */\n  dup2\n    /* \"#utility.yul\":2562:2576   */\n  lt\n    /* \"#utility.yul\":2555:2675   */\n  iszero\n  tag_82\n  jumpi\n    /* \"#utility.yul\":2626:2665   */\n  tag_83\n    /* \"#utility.yul\":2663:2664   */\n  0x00\n    /* \"#utility.yul\":2656:2661   */\n  dup3\n    /* \"#utility.yul\":2626:2665   */\n  tag_44\n  jump\t// in\ntag_83:\n    /* \"#utility.yul\":2599:2600   */\n  0x01\n    /* \"#utility.yul\":2592:2597   */\n  dup2\n    /* \"#utility.yul\":2588:2601   */\n  add\n    /* \"#utility.yul\":2579:2601   */\n  swap1\n  pop\n    /* \"#utility.yul\":2555:2675   */\n  jump(tag_80)\ntag_82:\n    /* \"#utility.yul\":2495:2681   */\n  pop\n  pop\n  jump\t// out\n    /* \"#utility.yul\":2687:3230   */\ntag_46:\n    /* \"#utility.yul\":2788:2790   */\n  0x1f\n    /* \"#utility.yul\":2783:2786   */\n  dup3\n    /* \"#utility.yul\":2780:2791   */\n  gt\n    /* \"#utility.yul\":2777:3223   */\n  iszero\n  tag_85\n  jumpi\n    /* \"#utility.yul\":2822:2860   */\n  tag_86\n    /* \"#utility.yul\":2854:2859   */\n  dup2\n    /* \"#utility.yul\":2822:2860   */\n  tag_34\n  jump\t// in\ntag_86:\n    /* \"#utility.yul\":2906:2935   */\n  tag_87\n    /* \"#utility.yul\":2924:2934   */\n  dup5\n    /* \"#utility.yul\":2906:2935   */\n  tag_35\n  jump\t// in\ntag_87:\n    /* \"#utility.yul\":2896:2904   */\n  dup2\n    /* \"#utility.yul\":2892:2936   */\n  add\n    /* \"#utility.yul\":3089:3091   */\n  0x20\n    /* \"#utility.yul\":3077:3087   */\n  dup6\n    /* \"#utility.yul\":3074:3092   */\n  lt\n    /* \"#utility.yul\":3071:3120   */\n  iszero\n  tag_88\n  jumpi\n    /* \"#utility.yul\":3110:3118   */\n  dup2\n    /* \"#utility.yul\":3095:3118   */\n  swap1\n  pop\n    /* \"#utility.yul\":3071:3120   */\ntag_88:\n    /* \"#utility.yul\":3133:3213   */\n  tag_89\n    /* \"#utility.yul\":3189:3211   */\n  tag_90\n    /* \"#utility.yul\":3207:3210   */\n  dup6\n    /* \"#utility.yul\":3189:3211   */\n  tag_35\n  jump\t// in\ntag_90:\n    /* \"#utility.yul\":3179:3187   */\n  dup4\n    /* \"#utility.yul\":3175:3212   */\n  add\n    /* \"#utility.yul\":3162:3173   */\n  dup3\n    /* \"#utility.yul\":3133:3213   */\n  tag_45\n  jump\t// in\ntag_89:\n    /* \"#utility.yul\":2792:3223   */\n  pop\n  pop\n    /* \"#utility.yul\":2777:3223   */\ntag_85:\n    /* \"#utility.yul\":2687:3230   */\n  pop\n  pop\n  pop\n  jump\t// out\n    /* \"#utility.yul\":3236:3353   */\ntag_47:\n    /* \"#utility.yul\":3290:3298   */\n  0x00\n    /* \"#utility.yul\":3340:3345   */\n  dup3\n    /* \"#utility.yul\":3334:3338   */\n  dup3\n    /* \"#utility.yul\":3330:3346   */\n  shr\n    /* \"#utility.yul\":3309:3346   */\n  swap1\n  pop\n    /* \"#utility.yul\":3236:3353   */\n  swap3\n  swap2\n  pop\n  pop\n  jump\t// out\n    /* \"#utility.yul\":3359:3528   */\ntag_48:\n    /* \"#utility.yul\":3403:3409   */\n  0x00\n    /* \"#utility.yul\":3436:3487   */\n  tag_93\n    /* \"#utility.yul\":3484:3485   */\n  0x00\n    /* \"#utility.yul\":3480:3486   */\n  not\n    /* \"#utility.yul\":3472:3477   */\n  dup5\n    /* \"#utility.yul\":3469:3470   */\n  0x08\n    /* \"#utility.yul\":3465:3478   */\n  mul\n    /* \"#utility.yul\":3436:3487   */\n  tag_47\n  jump\t// in\ntag_93:\n    /* \"#utility.yul\":3432:3488   */\n  not\n    /* \"#utility.yul\":3517:3521   */\n  dup1\n    /* \"#utility.yul\":3511:3515   */\n  dup4\n    /* \"#utility.yul\":3507:3522   */\n  and\n    /* \"#utility.yul\":3497:3522   */\n  swap2\n  pop\n    /* \"#utility.yul\":3410:3528   */\n  pop\n    /* \"#utility.yul\":3359:3528   */\n  swap3\n  swap2\n  pop\n  pop\n  jump\t// out\n    /* \"#utility.yul\":3533:3828   */\ntag_49:\n    /* \"#utility.yul\":3609:3613   */\n  0x00\n    /* \"#utility.yul\":3755:3784   */\n  tag_95\n    /* \"#utility.yul\":3780:3783   */\n  dup4\n    /* \"#utility.yul\":3774:3778   */\n  dup4\n    /* \"#utility.yul\":3755:3784   */\n  tag_48\n  jump\t// in\ntag_95:\n    /* \"#utility.yul\":3747:3784   */\n  swap2\n  pop\n    /* \"#utility.yul\":3817:3820   */\n  dup3\n    /* \"#utility.yul\":3814:3815   */\n  0x02\n    /* \"#utility.yul\":3810:3821   */\n  mul\n    /* \"#utility.yul\":3804:3808   */\n  dup3\n    /* \"#utility.yul\":3801:3822   */\n  or\n    /* \"#utility.yul\":3793:3822   */\n  swap1\n  pop\n    /* \"#utility.yul\":3533:3828   */\n  swap3\n  swap2\n  pop\n  pop\n  jump\t// out\n    /* \"#utility.yul\":3833:5228   */\ntag_11:\n    /* \"#utility.yul\":3950:3987   */\n  tag_97\n    /* \"#utility.yul\":3983:3986   */\n  dup3\n    /* \"#utility.yul\":3950:3987   */\n  tag_31\n  jump\t// in\ntag_97:\n    /* \"#utility.yul\":4052:4070   */\n  0xffffffffffffffff\n    /* \"#utility.yul\":4044:4050   */\n  dup2\n    /* \"#utility.yul\":4041:4071   */\n  gt\n    /* \"#utility.yul\":4038:4094   */\n  iszero\n  tag_98\n  jumpi\n    /* \"#utility.yul\":4074:4092   */\n  tag_99\n  tag_32\n  jump\t// in\ntag_99:\n    /* \"#utility.yul\":4038:4094   */\ntag_98:\n    /* \"#utility.yul\":4118:4156   */\n  tag_100\n    /* \"#utility.yul\":4150:4154   */\n  dup3\n    /* \"#utility.yul\":4144:4155   */\n  sload\n    /* \"#utility.yul\":4118:4156   */\n  tag_27\n  jump\t// in\ntag_100:\n    /* \"#utility.yul\":4203:4270   */\n  tag_101\n    /* \"#utility.yul\":4263:4269   */\n  dup3\n    /* \"#utility.yul\":4255:4261   */\n  dup3\n    /* \"#utility.yul\":4249:4253   */\n  dup6\n    /* \"#utility.yul\":4203:4270   */\n  tag_46\n  jump\t// in\ntag_101:\n    /* \"#utility.yul\":4297:4298   */\n  0x00\n    /* \"#utility.yul\":4321:4325   */\n  0x20\n    /* \"#utility.yul\":4308:4325   */\n  swap1\n  pop\n    /* \"#utility.yul\":4353:4355   */\n  0x1f\n    /* \"#utility.yul\":4345:4351   */\n  dup4\n    /* \"#utility.yul\":4342:4356   */\n  gt\n    /* \"#utility.yul\":4370:4371   */\n  0x01\n    /* \"#utility.yul\":4365:4983   */\n  dup2\n  eq\n  tag_103\n  jumpi\n    /* \"#utility.yul\":5027:5028   */\n  0x00\n    /* \"#utility.yul\":5044:5050   */\n  dup5\n    /* \"#utility.yul\":5041:5118   */\n  iszero\n  tag_104\n  jumpi\n    /* \"#utility.yul\":5093:5102   */\n  dup3\n    /* \"#utility.yul\":5088:5091   */\n  dup8\n    /* \"#utility.yul\":5084:5103   */\n  add\n    /* \"#utility.yul\":5078:5104   */\n  mload\n    /* \"#utility.yul\":5069:5104   */\n  swap1\n  pop\n    /* \"#utility.yul\":5041:5118   */\ntag_104:\n    /* \"#utility.yul\":5144:5211   */\n  tag_105\n    /* \"#utility.yul\":5204:5210   */\n  dup6\n    /* \"#utility.yul\":5197:5202   */\n  dup3\n    /* \"#utility.yul\":5144:5211   */\n  tag_49\n  jump\t// in\ntag_105:\n    /* \"#utility.yul\":5138:5142   */\n  dup7\n    /* \"#utility.yul\":5131:5212   */\n  sstore\n    /* \"#utility.yul\":5000:5222   */\n  pop\n    /* \"#utility.yul\":4335:5222   */\n  jump(tag_102)\n    /* \"#utility.yul\":4365:4983   */\ntag_103:\n    /* \"#utility.yul\":4417:4421   */\n  0x1f\n    /* \"#utility.yul\":4413:4422   */\n  not\n    /* \"#utility.yul\":4405:4411   */\n  dup5\n    /* \"#utility.yul\":4401:4423   */\n  and\n    /* \"#utility.yul\":4451:4488   */\n  tag_106\n    /* \"#utility.yul\":4483:4487   */\n  dup7\n    /* \"#utility.yul\":4451:4488   */\n  tag_34\n  jump\t// in\ntag_106:\n    /* \"#utility.yul\":4510:4511   */\n  0x00\n    /* \"#utility.yul\":4524:4732   */\ntag_107:\n    /* \"#utility.yul\":4538:4545   */\n  dup3\n    /* \"#utility.yul\":4535:4536   */\n  dup2\n    /* \"#utility.yul\":4532:4546   */\n  lt\n    /* \"#utility.yul\":4524:4732   */\n  iszero\n  tag_109\n  jumpi\n    /* \"#utility.yul\":4617:4626   */\n  dup5\n    /* \"#utility.yul\":4612:4615   */\n  dup10\n    /* \"#utility.yul\":4608:4627   */\n  add\n    /* \"#utility.yul\":4602:4628   */\n  mload\n    /* \"#utility.yul\":4594:4600   */\n  dup3\n    /* \"#utility.yul\":4587:4629   */\n  sstore\n    /* \"#utility.yul\":4668:4669   */\n  0x01\n    /* \"#utility.yul\":4660:4666   */\n  dup3\n    /* \"#utility.yul\":4656:4670   */\n  add\n    /* \"#utility.yul\":4646:4670   */\n  swap2\n  pop\n    /* \"#utility.yul\":4715:4717   */\n  0x20\n    /* \"#utility.yul\":4704:4713   */\n  dup6\n    /* \"#utility.yul\":4700:4718   */\n  add\n    /* \"#utility.yul\":4687:4718   */\n  swap5\n  pop\n    /* \"#utility.yul\":4561:4565   */\n  0x20\n    /* \"#utility.yul\":4558:4559   */\n  dup2\n    /* \"#utility.yul\":4554:4566   */\n  add\n    /* \"#utility.yul\":4549:4566   */\n  swap1\n  pop\n    /* \"#utility.yul\":4524:4732   */\n  jump(tag_107)\ntag_109:\n    /* \"#utility.yul\":4760:4766   */\n  dup7\n    /* \"#utility.yul\":4751:4758   */\n  dup4\n    /* \"#utility.yul\":4748:4767   */\n  lt\n    /* \"#utility.yul\":4745:4924   */\n  iszero\n  tag_110\n  jumpi\n    /* \"#utility.yul\":4818:4827   */\n  dup5\n    /* \"#utility.yul\":4813:4816   */\n  dup10\n    /* \"#utility.yul\":4809:4828   */\n  add\n    /* \"#utility.yul\":4803:4829   */\n  mload\n    /* \"#utility.yul\":4861:4909   */\n  tag_111\n    /* \"#utility.yul\":4903:4907   */\n  0x1f\n    /* \"#utility.yul\":4895:4901   */\n  dup10\n    /* \"#utility.yul\":4891:4908   */\n  and\n    /* \"#utility.yul\":4880:4889   */\n  dup3\n    /* \"#utility.yul\":4861:4909   */\n  tag_48\n  jump\t// in\ntag_111:\n    /* \"#utility.yul\":4853:4859   */\n  dup4\n    /* \"#utility.yul\":4846:4910   */\n  sstore\n    /* \"#utility.yul\":4768:4924   */\n  pop\n    /* \"#utility.yul\":4745:4924   */\ntag_110:\n    /* \"#utility.yul\":4970:4971   */\n  0x01\n    /* \"#utility.yul\":4966:4967   */\n  0x02\n    /* \"#utility.yul\":4958:4964   */\n  dup9\n    /* \"#utility.yul\":4954:4968   */\n  mul\n    /* \"#utility.yul\":4950:4972   */\n  add\n    /* \"#utility.yul\":4944:4948   */\n  dup9\n    /* \"#utility.yul\":4937:4973   */\n  sstore\n    /* \"#utility.yul\":4372:4983   */\n  pop\n  pop\n  pop\n    /* \"#utility.yul\":4335:5222   */\ntag_102:\n  pop\n    /* \"#utility.yul\":3925:5228   */\n  pop\n  pop\n  pop\n    /* \"#utility.yul\":3833:5228   */\n  pop\n  pop\n  jump\t// out\n    /* \"Task1/ITR.sol\":55:826  contract ITR {... */\ntag_6:\n  dataSize(sub_0)\n  dup1\n  dataOffset(sub_0)\n  0x00\n  codecopy\n  0x00\n  return\nstop\n\nsub_0: assembly {\n        /* \"Task1/ITR.sol\":55:826  contract ITR {... */\n      mstore(0x40, 0x80)\n      callvalue\n      dup1\n      iszero\n      tag_1\n      jumpi\n      revert(0x00, 0x00)\n    tag_1:\n      pop\n      jumpi(tag_2, lt(calldatasize, 0x04))\n      shr(0xe0, calldataload(0x00))\n      dup1\n      0xab7baabe\n      eq\n      tag_3\n      jumpi\n    tag_2:\n      revert(0x00, 0x00)\n        /* \"Task1/ITR.sol\":411:823  function toRoman(uint256 num) public view returns (string memory) {... */\n    tag_3:\n      tag_4\n      0x04\n      dup1\n      calldatasize\n      sub\n      dup2\n      add\n      swap1\n      tag_5\n      swap2\n      swap1\n      tag_6\n      jump\t// in\n    tag_5:\n      tag_7\n      jump\t// in\n    tag_4:\n      mload(0x40)\n      tag_8\n      swap2\n      swap1\n      tag_9\n      jump\t// in\n    tag_8:\n      mload(0x40)\n      dup1\n      swap2\n      sub\n      swap1\n      return\n    tag_7:\n        /* \"Task1/ITR.sol\":462:475  string memory */\n      0x60\n        /* \"Task1/ITR.sol\":501:502  0 */\n      0x00\n        /* \"Task1/ITR.sol\":495:498  num */\n      dup3\n        /* \"Task1/ITR.sol\":495:502  num > 0 */\n      gt\n        /* \"Task1/ITR.sol\":487:523  require(num > 0, \"Must be positive\") */\n      tag_11\n      jumpi\n      mload(0x40)\n      0x08c379a000000000000000000000000000000000000000000000000000000000\n      dup2\n      mstore\n      0x04\n      add\n      tag_12\n      swap1\n      tag_13\n      jump\t// in\n    tag_12:\n      mload(0x40)\n      dup1\n      swap2\n      sub\n      swap1\n      revert\n    tag_11:\n        /* \"Task1/ITR.sol\":533:552  bytes memory result */\n      0x60\n        /* \"Task1/ITR.sol\":568:574  uint i */\n      0x00\n        /* \"Task1/ITR.sol\":577:578  0 */\n      0x00\n        /* \"Task1/ITR.sol\":568:578  uint i = 0 */\n      swap1\n      pop\n        /* \"Task1/ITR.sol\":563:785  for (uint i = 0; i < romanValues.length; i++) {... */\n    tag_14:\n        /* \"Task1/ITR.sol\":584:602  romanValues.length */\n      0x0d\n        /* \"Task1/ITR.sol\":580:581  i */\n      dup2\n        /* \"Task1/ITR.sol\":580:602  i < romanValues.length */\n      lt\n        /* \"Task1/ITR.sol\":563:785  for (uint i = 0; i < romanValues.length; i++) {... */\n      iszero\n      tag_15\n      jumpi\n        /* \"Task1/ITR.sol\":623:775  while (num >= romanValues[i]) {... */\n    tag_17:\n        /* \"Task1/ITR.sol\":637:648  romanValues */\n      0x0d\n        /* \"Task1/ITR.sol\":649:650  i */\n      dup2\n        /* \"Task1/ITR.sol\":637:651  romanValues[i] */\n      0x0d\n      dup2\n      lt\n      tag_19\n      jumpi\n      tag_20\n      tag_21\n      jump\t// in\n    tag_20:\n    tag_19:\n      0x10\n      swap2\n      dup3\n      dup3\n      div\n      add\n      swap2\n      swap1\n      mod\n      0x02\n      mul\n      swap1\n      sload\n      swap1\n      0x0100\n      exp\n      swap1\n      div\n      0xffff\n      and\n        /* \"Task1/ITR.sol\":630:651  num >= romanValues[i] */\n      0xffff\n      and\n        /* \"Task1/ITR.sol\":630:633  num */\n      dup5\n        /* \"Task1/ITR.sol\":630:651  num >= romanValues[i] */\n      lt\n        /* \"Task1/ITR.sol\":623:775  while (num >= romanValues[i]) {... */\n      tag_18\n      jumpi\n        /* \"Task1/ITR.sol\":678:689  romanValues */\n      0x0d\n        /* \"Task1/ITR.sol\":690:691  i */\n      dup2\n        /* \"Task1/ITR.sol\":678:692  romanValues[i] */\n      0x0d\n      dup2\n      lt\n      tag_23\n      jumpi\n      tag_24\n      tag_21\n      jump\t// in\n    tag_24:\n    tag_23:\n      0x10\n      swap2\n      dup3\n      dup3\n      div\n      add\n      swap2\n      swap1\n      mod\n      0x02\n      mul\n      swap1\n      sload\n      swap1\n      0x0100\n      exp\n      swap1\n      div\n      0xffff\n      and\n        /* \"Task1/ITR.sol\":671:692  num -= romanValues[i] */\n      0xffff\n      and\n      dup5\n      tag_26\n      swap2\n      swap1\n      tag_27\n      jump\t// in\n    tag_26:\n      swap4\n      pop\n        /* \"Task1/ITR.sol\":736:742  result */\n      dup2\n        /* \"Task1/ITR.sol\":744:756  romanSymbols */\n      0x00\n        /* \"Task1/ITR.sol\":757:758  i */\n      dup3\n        /* \"Task1/ITR.sol\":744:759  romanSymbols[i] */\n      0x0d\n      dup2\n      lt\n      tag_28\n      jumpi\n      tag_29\n      tag_21\n      jump\t// in\n    tag_29:\n    tag_28:\n      add\n        /* \"Task1/ITR.sol\":719:760  abi.encodePacked(result, romanSymbols[i]) */\n      add(0x20, mload(0x40))\n      tag_31\n      swap3\n      swap2\n      swap1\n      tag_32\n      jump\t// in\n    tag_31:\n      mload(0x40)\n      0x20\n      dup2\n      dup4\n      sub\n      sub\n      dup2\n      mstore\n      swap1\n      0x40\n      mstore\n        /* \"Task1/ITR.sol\":710:760  result = abi.encodePacked(result, romanSymbols[i]) */\n      swap2\n      pop\n        /* \"Task1/ITR.sol\":623:775  while (num >= romanValues[i]) {... */\n      jump(tag_17)\n    tag_18:\n        /* \"Task1/ITR.sol\":604:607  i++ */\n      dup1\n      dup1\n      0x01\n      add\n      swap2\n      pop\n      pop\n        /* \"Task1/ITR.sol\":563:785  for (uint i = 0; i < romanValues.length; i++) {... */\n      jump(tag_14)\n    tag_15:\n      pop\n        /* \"Task1/ITR.sol\":809:815  result */\n      dup1\n        /* \"Task1/ITR.sol\":795:816  return string(result) */\n      swap2\n      pop\n      pop\n        /* \"Task1/ITR.sol\":411:823  function toRoman(uint256 num) public view returns (string memory) {... */\n      swap2\n      swap1\n      pop\n      jump\t// out\n        /* \"#utility.yul\":88:205   */\n    tag_34:\n        /* \"#utility.yul\":197:198   */\n      0x00\n        /* \"#utility.yul\":194:195   */\n      0x00\n        /* \"#utility.yul\":187:199   */\n      revert\n        /* \"#utility.yul\":334:411   */\n    tag_36:\n        /* \"#utility.yul\":371:378   */\n      0x00\n        /* \"#utility.yul\":400:405   */\n      dup2\n        /* \"#utility.yul\":389:405   */\n      swap1\n      pop\n        /* \"#utility.yul\":334:411   */\n      swap2\n      swap1\n      pop\n      jump\t// out\n        /* \"#utility.yul\":417:539   */\n    tag_37:\n        /* \"#utility.yul\":490:514   */\n      tag_61\n        /* \"#utility.yul\":508:513   */\n      dup2\n        /* \"#utility.yul\":490:514   */\n      tag_36\n      jump\t// in\n    tag_61:\n        /* \"#utility.yul\":483:488   */\n      dup2\n        /* \"#utility.yul\":480:515   */\n      eq\n        /* \"#utility.yul\":470:533   */\n      tag_62\n      jumpi\n        /* \"#utility.yul\":529:530   */\n      0x00\n        /* \"#utility.yul\":526:527   */\n      0x00\n        /* \"#utility.yul\":519:531   */\n      revert\n        /* \"#utility.yul\":470:533   */\n    tag_62:\n        /* \"#utility.yul\":417:539   */\n      pop\n      jump\t// out\n        /* \"#utility.yul\":545:684   */\n    tag_38:\n        /* \"#utility.yul\":591:596   */\n      0x00\n        /* \"#utility.yul\":629:635   */\n      dup2\n        /* \"#utility.yul\":616:636   */\n      calldataload\n        /* \"#utility.yul\":607:636   */\n      swap1\n      pop\n        /* \"#utility.yul\":645:678   */\n      tag_64\n        /* \"#utility.yul\":672:677   */\n      dup2\n        /* \"#utility.yul\":645:678   */\n      tag_37\n      jump\t// in\n    tag_64:\n        /* \"#utility.yul\":545:684   */\n      swap3\n      swap2\n      pop\n      pop\n      jump\t// out\n        /* \"#utility.yul\":690:1019   */\n    tag_6:\n        /* \"#utility.yul\":749:755   */\n      0x00\n        /* \"#utility.yul\":798:800   */\n      0x20\n        /* \"#utility.yul\":786:795   */\n      dup3\n        /* \"#utility.yul\":777:784   */\n      dup5\n        /* \"#utility.yul\":773:796   */\n      sub\n        /* \"#utility.yul\":769:801   */\n      slt\n        /* \"#utility.yul\":766:885   */\n      iszero\n      tag_66\n      jumpi\n        /* \"#utility.yul\":804:883   */\n      tag_67\n      tag_34\n      jump\t// in\n    tag_67:\n        /* \"#utility.yul\":766:885   */\n    tag_66:\n        /* \"#utility.yul\":924:925   */\n      0x00\n        /* \"#utility.yul\":949:1002   */\n      tag_68\n        /* \"#utility.yul\":994:1001   */\n      dup5\n        /* \"#utility.yul\":985:991   */\n      dup3\n        /* \"#utility.yul\":974:983   */\n      dup6\n        /* \"#utility.yul\":970:992   */\n      add\n        /* \"#utility.yul\":949:1002   */\n      tag_38\n      jump\t// in\n    tag_68:\n        /* \"#utility.yul\":939:1002   */\n      swap2\n      pop\n        /* \"#utility.yul\":895:1012   */\n      pop\n        /* \"#utility.yul\":690:1019   */\n      swap3\n      swap2\n      pop\n      pop\n      jump\t// out\n        /* \"#utility.yul\":1025:1124   */\n    tag_39:\n        /* \"#utility.yul\":1077:1083   */\n      0x00\n        /* \"#utility.yul\":1111:1116   */\n      dup2\n        /* \"#utility.yul\":1105:1117   */\n      mload\n        /* \"#utility.yul\":1095:1117   */\n      swap1\n      pop\n        /* \"#utility.yul\":1025:1124   */\n      swap2\n      swap1\n      pop\n      jump\t// out\n        /* \"#utility.yul\":1130:1299   */\n    tag_40:\n        /* \"#utility.yul\":1214:1225   */\n      0x00\n        /* \"#utility.yul\":1248:1254   */\n      dup3\n        /* \"#utility.yul\":1243:1246   */\n      dup3\n        /* \"#utility.yul\":1236:1255   */\n      mstore\n        /* \"#utility.yul\":1288:1292   */\n      0x20\n        /* \"#utility.yul\":1283:1286   */\n      dup3\n        /* \"#utility.yul\":1279:1293   */\n      add\n        /* \"#utility.yul\":1264:1293   */\n      swap1\n      pop\n        /* \"#utility.yul\":1130:1299   */\n      swap3\n      swap2\n      pop\n      pop\n      jump\t// out\n        /* \"#utility.yul\":1305:1444   */\n    tag_41:\n        /* \"#utility.yul\":1394:1400   */\n      dup3\n        /* \"#utility.yul\":1389:1392   */\n      dup2\n        /* \"#utility.yul\":1384:1387   */\n      dup4\n        /* \"#utility.yul\":1378:1401   */\n      mcopy\n        /* \"#utility.yul\":1435:1436   */\n      0x00\n        /* \"#utility.yul\":1426:1432   */\n      dup4\n        /* \"#utility.yul\":1421:1424   */\n      dup4\n        /* \"#utility.yul\":1417:1433   */\n      add\n        /* \"#utility.yul\":1410:1437   */\n      mstore\n        /* \"#utility.yul\":1305:1444   */\n      pop\n      pop\n      pop\n      jump\t// out\n        /* \"#utility.yul\":1450:1552   */\n    tag_42:\n        /* \"#utility.yul\":1491:1497   */\n      0x00\n        /* \"#utility.yul\":1542:1544   */\n      0x1f\n        /* \"#utility.yul\":1538:1545   */\n      not\n        /* \"#utility.yul\":1533:1535   */\n      0x1f\n        /* \"#utility.yul\":1526:1531   */\n      dup4\n        /* \"#utility.yul\":1522:1536   */\n      add\n        /* \"#utility.yul\":1518:1546   */\n      and\n        /* \"#utility.yul\":1508:1546   */\n      swap1\n      pop\n        /* \"#utility.yul\":1450:1552   */\n      swap2\n      swap1\n      pop\n      jump\t// out\n        /* \"#utility.yul\":1558:1935   */\n    tag_43:\n        /* \"#utility.yul\":1646:1649   */\n      0x00\n        /* \"#utility.yul\":1674:1713   */\n      tag_74\n        /* \"#utility.yul\":1707:1712   */\n      dup3\n        /* \"#utility.yul\":1674:1713   */\n      tag_39\n      jump\t// in\n    tag_74:\n        /* \"#utility.yul\":1729:1800   */\n      tag_75\n        /* \"#utility.yul\":1793:1799   */\n      dup2\n        /* \"#utility.yul\":1788:1791   */\n      dup6\n        /* \"#utility.yul\":1729:1800   */\n      tag_40\n      jump\t// in\n    tag_75:\n        /* \"#utility.yul\":1722:1800   */\n      swap4\n      pop\n        /* \"#utility.yul\":1809:1874   */\n      tag_76\n        /* \"#utility.yul\":1867:1873   */\n      dup2\n        /* \"#utility.yul\":1862:1865   */\n      dup6\n        /* \"#utility.yul\":1855:1859   */\n      0x20\n        /* \"#utility.yul\":1848:1853   */\n      dup7\n        /* \"#utility.yul\":1844:1860   */\n      add\n        /* \"#utility.yul\":1809:1874   */\n      tag_41\n      jump\t// in\n    tag_76:\n        /* \"#utility.yul\":1899:1928   */\n      tag_77\n        /* \"#utility.yul\":1921:1927   */\n      dup2\n        /* \"#utility.yul\":1899:1928   */\n      tag_42\n      jump\t// in\n    tag_77:\n        /* \"#utility.yul\":1894:1897   */\n      dup5\n        /* \"#utility.yul\":1890:1929   */\n      add\n        /* \"#utility.yul\":1883:1929   */\n      swap2\n      pop\n        /* \"#utility.yul\":1650:1935   */\n      pop\n        /* \"#utility.yul\":1558:1935   */\n      swap3\n      swap2\n      pop\n      pop\n      jump\t// out\n        /* \"#utility.yul\":1941:2254   */\n    tag_9:\n        /* \"#utility.yul\":2054:2058   */\n      0x00\n        /* \"#utility.yul\":2092:2094   */\n      0x20\n        /* \"#utility.yul\":2081:2090   */\n      dup3\n        /* \"#utility.yul\":2077:2095   */\n      add\n        /* \"#utility.yul\":2069:2095   */\n      swap1\n      pop\n        /* \"#utility.yul\":2141:2150   */\n      dup2\n        /* \"#utility.yul\":2135:2139   */\n      dup2\n        /* \"#utility.yul\":2131:2151   */\n      sub\n        /* \"#utility.yul\":2127:2128   */\n      0x00\n        /* \"#utility.yul\":2116:2125   */\n      dup4\n        /* \"#utility.yul\":2112:2129   */\n      add\n        /* \"#utility.yul\":2105:2152   */\n      mstore\n        /* \"#utility.yul\":2169:2247   */\n      tag_79\n        /* \"#utility.yul\":2242:2246   */\n      dup2\n        /* \"#utility.yul\":2233:2239   */\n      dup5\n        /* \"#utility.yul\":2169:2247   */\n      tag_43\n      jump\t// in\n    tag_79:\n        /* \"#utility.yul\":2161:2247   */\n      swap1\n      pop\n        /* \"#utility.yul\":1941:2254   */\n      swap3\n      swap2\n      pop\n      pop\n      jump\t// out\n        /* \"#utility.yul\":2260:2426   */\n    tag_44:\n        /* \"#utility.yul\":2400:2418   */\n      0x4d75737420626520706f73697469766500000000000000000000000000000000\n        /* \"#utility.yul\":2396:2397   */\n      0x00\n        /* \"#utility.yul\":2388:2394   */\n      dup3\n        /* \"#utility.yul\":2384:2398   */\n      add\n        /* \"#utility.yul\":2377:2419   */\n      mstore\n        /* \"#utility.yul\":2260:2426   */\n      pop\n      jump\t// out\n        /* \"#utility.yul\":2432:2798   */\n    tag_45:\n        /* \"#utility.yul\":2574:2577   */\n      0x00\n        /* \"#utility.yul\":2595:2662   */\n      tag_82\n        /* \"#utility.yul\":2659:2661   */\n      0x10\n        /* \"#utility.yul\":2654:2657   */\n      dup4\n        /* \"#utility.yul\":2595:2662   */\n      tag_40\n      jump\t// in\n    tag_82:\n        /* \"#utility.yul\":2588:2662   */\n      swap2\n      pop\n        /* \"#utility.yul\":2671:2764   */\n      tag_83\n        /* \"#utility.yul\":2760:2763   */\n      dup3\n        /* \"#utility.yul\":2671:2764   */\n      tag_44\n      jump\t// in\n    tag_83:\n        /* \"#utility.yul\":2789:2791   */\n      0x20\n        /* \"#utility.yul\":2784:2787   */\n      dup3\n        /* \"#utility.yul\":2780:2792   */\n      add\n        /* \"#utility.yul\":2773:2792   */\n      swap1\n      pop\n        /* \"#utility.yul\":2432:2798   */\n      swap2\n      swap1\n      pop\n      jump\t// out\n        /* \"#utility.yul\":2804:3223   */\n    tag_13:\n        /* \"#utility.yul\":2970:2974   */\n      0x00\n        /* \"#utility.yul\":3008:3010   */\n      0x20\n        /* \"#utility.yul\":2997:3006   */\n      dup3\n        /* \"#utility.yul\":2993:3011   */\n      add\n        /* \"#utility.yul\":2985:3011   */\n      swap1\n      pop\n        /* \"#utility.yul\":3057:3066   */\n      dup2\n        /* \"#utility.yul\":3051:3055   */\n      dup2\n        /* \"#utility.yul\":3047:3067   */\n      sub\n        /* \"#utility.yul\":3043:3044   */\n      0x00\n        /* \"#utility.yul\":3032:3041   */\n      dup4\n        /* \"#utility.yul\":3028:3045   */\n      add\n        /* \"#utility.yul\":3021:3068   */\n      mstore\n        /* \"#utility.yul\":3085:3216   */\n      tag_85\n        /* \"#utility.yul\":3211:3215   */\n      dup2\n        /* \"#utility.yul\":3085:3216   */\n      tag_45\n      jump\t// in\n    tag_85:\n        /* \"#utility.yul\":3077:3216   */\n      swap1\n      pop\n        /* \"#utility.yul\":2804:3223   */\n      swap2\n      swap1\n      pop\n      jump\t// out\n        /* \"#utility.yul\":3229:3409   */\n    tag_21:\n        /* \"#utility.yul\":3277:3354   */\n      0x4e487b7100000000000000000000000000000000000000000000000000000000\n        /* \"#utility.yul\":3274:3275   */\n      0x00\n        /* \"#utility.yul\":3267:3355   */\n      mstore\n        /* \"#utility.yul\":3374:3378   */\n      0x32\n        /* \"#utility.yul\":3371:3372   */\n      0x04\n        /* \"#utility.yul\":3364:3379   */\n      mstore\n        /* \"#utility.yul\":3398:3402   */\n      0x24\n        /* \"#utility.yul\":3395:3396   */\n      0x00\n        /* \"#utility.yul\":3388:3403   */\n      revert\n        /* \"#utility.yul\":3415:3595   */\n    tag_46:\n        /* \"#utility.yul\":3463:3540   */\n      0x4e487b7100000000000000000000000000000000000000000000000000000000\n        /* \"#utility.yul\":3460:3461   */\n      0x00\n        /* \"#utility.yul\":3453:3541   */\n      mstore\n        /* \"#utility.yul\":3560:3564   */\n      0x11\n        /* \"#utility.yul\":3557:3558   */\n      0x04\n        /* \"#utility.yul\":3550:3565   */\n      mstore\n        /* \"#utility.yul\":3584:3588   */\n      0x24\n        /* \"#utility.yul\":3581:3582   */\n      0x00\n        /* \"#utility.yul\":3574:3589   */\n      revert\n        /* \"#utility.yul\":3601:3795   */\n    tag_27:\n        /* \"#utility.yul\":3641:3645   */\n      0x00\n        /* \"#utility.yul\":3661:3681   */\n      tag_89\n        /* \"#utility.yul\":3679:3680   */\n      dup3\n        /* \"#utility.yul\":3661:3681   */\n      tag_36\n      jump\t// in\n    tag_89:\n        /* \"#utility.yul\":3656:3681   */\n      swap2\n      pop\n        /* \"#utility.yul\":3695:3715   */\n      tag_90\n        /* \"#utility.yul\":3713:3714   */\n      dup4\n        /* \"#utility.yul\":3695:3715   */\n      tag_36\n      jump\t// in\n    tag_90:\n        /* \"#utility.yul\":3690:3715   */\n      swap3\n      pop\n        /* \"#utility.yul\":3739:3740   */\n      dup3\n        /* \"#utility.yul\":3736:3737   */\n      dup3\n        /* \"#utility.yul\":3732:3741   */\n      sub\n        /* \"#utility.yul\":3724:3741   */\n      swap1\n      pop\n        /* \"#utility.yul\":3763:3764   */\n      dup2\n        /* \"#utility.yul\":3757:3761   */\n      dup2\n        /* \"#utility.yul\":3754:3765   */\n      gt\n        /* \"#utility.yul\":3751:3788   */\n      iszero\n      tag_91\n      jumpi\n        /* \"#utility.yul\":3768:3786   */\n      tag_92\n      tag_46\n      jump\t// in\n    tag_92:\n        /* \"#utility.yul\":3751:3788   */\n    tag_91:\n        /* \"#utility.yul\":3601:3795   */\n      swap3\n      swap2\n      pop\n      pop\n      jump\t// out\n        /* \"#utility.yul\":3801:3899   */\n    tag_47:\n        /* \"#utility.yul\":3852:3858   */\n      0x00\n        /* \"#utility.yul\":3886:3891   */\n      dup2\n        /* \"#utility.yul\":3880:3892   */\n      mload\n        /* \"#utility.yul\":3870:3892   */\n      swap1\n      pop\n        /* \"#utility.yul\":3801:3899   */\n      swap2\n      swap1\n      pop\n      jump\t// out\n        /* \"#utility.yul\":3905:4052   */\n    tag_48:\n        /* \"#utility.yul\":4006:4017   */\n      0x00\n        /* \"#utility.yul\":4043:4046   */\n      dup2\n        /* \"#utility.yul\":4028:4046   */\n      swap1\n      pop\n        /* \"#utility.yul\":3905:4052   */\n      swap3\n      swap2\n      pop\n      pop\n      jump\t// out\n        /* \"#utility.yul\":4058:4444   */\n    tag_49:\n        /* \"#utility.yul\":4162:4165   */\n      0x00\n        /* \"#utility.yul\":4190:4228   */\n      tag_96\n        /* \"#utility.yul\":4222:4227   */\n      dup3\n        /* \"#utility.yul\":4190:4228   */\n      tag_47\n      jump\t// in\n    tag_96:\n        /* \"#utility.yul\":4244:4332   */\n      tag_97\n        /* \"#utility.yul\":4325:4331   */\n      dup2\n        /* \"#utility.yul\":4320:4323   */\n      dup6\n        /* \"#utility.yul\":4244:4332   */\n      tag_48\n      jump\t// in\n    tag_97:\n        /* \"#utility.yul\":4237:4332   */\n      swap4\n      pop\n        /* \"#utility.yul\":4341:4406   */\n      tag_98\n        /* \"#utility.yul\":4399:4405   */\n      dup2\n        /* \"#utility.yul\":4394:4397   */\n      dup6\n        /* \"#utility.yul\":4387:4391   */\n      0x20\n        /* \"#utility.yul\":4380:4385   */\n      dup7\n        /* \"#utility.yul\":4376:4392   */\n      add\n        /* \"#utility.yul\":4341:4406   */\n      tag_41\n      jump\t// in\n    tag_98:\n        /* \"#utility.yul\":4431:4437   */\n      dup1\n        /* \"#utility.yul\":4426:4429   */\n      dup5\n        /* \"#utility.yul\":4422:4438   */\n      add\n        /* \"#utility.yul\":4415:4438   */\n      swap2\n      pop\n        /* \"#utility.yul\":4166:4444   */\n      pop\n        /* \"#utility.yul\":4058:4444   */\n      swap3\n      swap2\n      pop\n      pop\n      jump\t// out\n        /* \"#utility.yul\":4450:4630   */\n    tag_50:\n        /* \"#utility.yul\":4498:4575   */\n      0x4e487b7100000000000000000000000000000000000000000000000000000000\n        /* \"#utility.yul\":4495:4496   */\n      0x00\n        /* \"#utility.yul\":4488:4576   */\n      mstore\n        /* \"#utility.yul\":4595:4599   */\n      0x22\n        /* \"#utility.yul\":4592:4593   */\n      0x04\n        /* \"#utility.yul\":4585:4600   */\n      mstore\n        /* \"#utility.yul\":4619:4623   */\n      0x24\n        /* \"#utility.yul\":4616:4617   */\n      0x00\n        /* \"#utility.yul\":4609:4624   */\n      revert\n        /* \"#utility.yul\":4636:4956   */\n    tag_51:\n        /* \"#utility.yul\":4680:4686   */\n      0x00\n        /* \"#utility.yul\":4717:4718   */\n      0x02\n        /* \"#utility.yul\":4711:4715   */\n      dup3\n        /* \"#utility.yul\":4707:4719   */\n      div\n        /* \"#utility.yul\":4697:4719   */\n      swap1\n      pop\n        /* \"#utility.yul\":4764:4765   */\n      0x01\n        /* \"#utility.yul\":4758:4762   */\n      dup3\n        /* \"#utility.yul\":4754:4766   */\n      and\n        /* \"#utility.yul\":4785:4803   */\n      dup1\n        /* \"#utility.yul\":4775:4856   */\n      tag_101\n      jumpi\n        /* \"#utility.yul\":4841:4845   */\n      0x7f\n        /* \"#utility.yul\":4833:4839   */\n      dup3\n        /* \"#utility.yul\":4829:4846   */\n      and\n        /* \"#utility.yul\":4819:4846   */\n      swap2\n      pop\n        /* \"#utility.yul\":4775:4856   */\n    tag_101:\n        /* \"#utility.yul\":4903:4905   */\n      0x20\n        /* \"#utility.yul\":4895:4901   */\n      dup3\n        /* \"#utility.yul\":4892:4906   */\n      lt\n        /* \"#utility.yul\":4872:4890   */\n      dup2\n        /* \"#utility.yul\":4869:4907   */\n      sub\n        /* \"#utility.yul\":4866:4950   */\n      tag_102\n      jumpi\n        /* \"#utility.yul\":4922:4940   */\n      tag_103\n      tag_50\n      jump\t// in\n    tag_103:\n        /* \"#utility.yul\":4866:4950   */\n    tag_102:\n        /* \"#utility.yul\":4687:4956   */\n      pop\n        /* \"#utility.yul\":4636:4956   */\n      swap2\n      swap1\n      pop\n      jump\t// out\n        /* \"#utility.yul\":4962:5110   */\n    tag_52:\n        /* \"#utility.yul\":5064:5075   */\n      0x00\n        /* \"#utility.yul\":5101:5104   */\n      dup2\n        /* \"#utility.yul\":5086:5104   */\n      swap1\n      pop\n        /* \"#utility.yul\":4962:5110   */\n      swap3\n      swap2\n      pop\n      pop\n      jump\t// out\n        /* \"#utility.yul\":5116:5257   */\n    tag_53:\n        /* \"#utility.yul\":5165:5169   */\n      0x00\n        /* \"#utility.yul\":5188:5191   */\n      dup2\n        /* \"#utility.yul\":5180:5191   */\n      swap1\n      pop\n        /* \"#utility.yul\":5211:5214   */\n      dup2\n        /* \"#utility.yul\":5208:5209   */\n      0x00\n        /* \"#utility.yul\":5201:5215   */\n      mstore\n        /* \"#utility.yul\":5245:5249   */\n      0x20\n        /* \"#utility.yul\":5242:5243   */\n      0x00\n        /* \"#utility.yul\":5232:5250   */\n      keccak256\n        /* \"#utility.yul\":5224:5250   */\n      swap1\n      pop\n        /* \"#utility.yul\":5116:5257   */\n      swap2\n      swap1\n      pop\n      jump\t// out\n        /* \"#utility.yul\":5287:6161   */\n    tag_54:\n        /* \"#utility.yul\":5390:5393   */\n      0x00\n        /* \"#utility.yul\":5427:5432   */\n      dup2\n        /* \"#utility.yul\":5421:5433   */\n      sload\n        /* \"#utility.yul\":5456:5492   */\n      tag_107\n        /* \"#utility.yul\":5482:5491   */\n      dup2\n        /* \"#utility.yul\":5456:5492   */\n      tag_51\n      jump\t// in\n    tag_107:\n        /* \"#utility.yul\":5508:5597   */\n      tag_108\n        /* \"#utility.yul\":5590:5596   */\n      dup2\n        /* \"#utility.yul\":5585:5588   */\n      dup7\n        /* \"#utility.yul\":5508:5597   */\n      tag_52\n      jump\t// in\n    tag_108:\n        /* \"#utility.yul\":5501:5597   */\n      swap5\n      pop\n        /* \"#utility.yul\":5628:5629   */\n      0x01\n        /* \"#utility.yul\":5617:5626   */\n      dup3\n        /* \"#utility.yul\":5613:5630   */\n      and\n        /* \"#utility.yul\":5644:5645   */\n      0x00\n        /* \"#utility.yul\":5639:5805   */\n      dup2\n      eq\n      tag_110\n      jumpi\n        /* \"#utility.yul\":5819:5820   */\n      0x01\n        /* \"#utility.yul\":5814:6155   */\n      dup2\n      eq\n      tag_111\n      jumpi\n        /* \"#utility.yul\":5606:6155   */\n      jump(tag_109)\n        /* \"#utility.yul\":5639:5805   */\n    tag_110:\n        /* \"#utility.yul\":5723:5727   */\n      0xff\n        /* \"#utility.yul\":5719:5728   */\n      not\n        /* \"#utility.yul\":5708:5717   */\n      dup4\n        /* \"#utility.yul\":5704:5729   */\n      and\n        /* \"#utility.yul\":5699:5702   */\n      dup7\n        /* \"#utility.yul\":5692:5730   */\n      mstore\n        /* \"#utility.yul\":5785:5791   */\n      dup2\n        /* \"#utility.yul\":5778:5792   */\n      iszero\n        /* \"#utility.yul\":5771:5793   */\n      iszero\n        /* \"#utility.yul\":5763:5769   */\n      dup3\n        /* \"#utility.yul\":5759:5794   */\n      mul\n        /* \"#utility.yul\":5754:5757   */\n      dup7\n        /* \"#utility.yul\":5750:5795   */\n      add\n        /* \"#utility.yul\":5743:5795   */\n      swap4\n      pop\n        /* \"#utility.yul\":5639:5805   */\n      jump(tag_109)\n        /* \"#utility.yul\":5814:6155   */\n    tag_111:\n        /* \"#utility.yul\":5881:5919   */\n      tag_112\n        /* \"#utility.yul\":5913:5918   */\n      dup6\n        /* \"#utility.yul\":5881:5919   */\n      tag_53\n      jump\t// in\n    tag_112:\n        /* \"#utility.yul\":5941:5942   */\n      0x00\n        /* \"#utility.yul\":5955:6109   */\n    tag_113:\n        /* \"#utility.yul\":5969:5975   */\n      dup4\n        /* \"#utility.yul\":5966:5967   */\n      dup2\n        /* \"#utility.yul\":5963:5976   */\n      lt\n        /* \"#utility.yul\":5955:6109   */\n      iszero\n      tag_115\n      jumpi\n        /* \"#utility.yul\":6043:6050   */\n      dup2\n        /* \"#utility.yul\":6037:6051   */\n      sload\n        /* \"#utility.yul\":6033:6034   */\n      dup2\n        /* \"#utility.yul\":6028:6031   */\n      dup10\n        /* \"#utility.yul\":6024:6035   */\n      add\n        /* \"#utility.yul\":6017:6052   */\n      mstore\n        /* \"#utility.yul\":6093:6094   */\n      0x01\n        /* \"#utility.yul\":6084:6091   */\n      dup3\n        /* \"#utility.yul\":6080:6095   */\n      add\n        /* \"#utility.yul\":6069:6095   */\n      swap2\n      pop\n        /* \"#utility.yul\":5991:5995   */\n      0x20\n        /* \"#utility.yul\":5988:5989   */\n      dup2\n        /* \"#utility.yul\":5984:5996   */\n      add\n        /* \"#utility.yul\":5979:5996   */\n      swap1\n      pop\n        /* \"#utility.yul\":5955:6109   */\n      jump(tag_113)\n    tag_115:\n        /* \"#utility.yul\":6138:6144   */\n      dup4\n        /* \"#utility.yul\":6133:6136   */\n      dup9\n        /* \"#utility.yul\":6129:6145   */\n      add\n        /* \"#utility.yul\":6122:6145   */\n      swap6\n      pop\n        /* \"#utility.yul\":5821:6155   */\n      pop\n      pop\n        /* \"#utility.yul\":5606:6155   */\n    tag_109:\n      pop\n        /* \"#utility.yul\":5394:6161   */\n      pop\n      pop\n        /* \"#utility.yul\":5287:6161   */\n      swap3\n      swap2\n      pop\n      pop\n      jump\t// out\n        /* \"#utility.yul\":6167:6592   */\n    tag_32:\n        /* \"#utility.yul\":6342:6345   */\n      0x00\n        /* \"#utility.yul\":6364:6457   */\n      tag_117\n        /* \"#utility.yul\":6453:6456   */\n      dup3\n        /* \"#utility.yul\":6444:6450   */\n      dup6\n        /* \"#utility.yul\":6364:6457   */\n      tag_49\n      jump\t// in\n    tag_117:\n        /* \"#utility.yul\":6357:6457   */\n      swap2\n      pop\n        /* \"#utility.yul\":6474:6566   */\n      tag_118\n        /* \"#utility.yul\":6562:6565   */\n      dup3\n        /* \"#utility.yul\":6553:6559   */\n      dup5\n        /* \"#utility.yul\":6474:6566   */\n      tag_54\n      jump\t// in\n    tag_118:\n        /* \"#utility.yul\":6467:6566   */\n      swap2\n      pop\n        /* \"#utility.yul\":6583:6586   */\n      dup2\n        /* \"#utility.yul\":6576:6586   */\n      swap1\n      pop\n        /* \"#utility.yul\":6167:6592   */\n      swap4\n      swap3\n      pop\n      pop\n      pop\n      jump\t// out\n\n    auxdata: 0xa2646970667358221220619f0fc84337260527b3a63b88ba992e9c48af9ba783784615f99526fb25cece64736f6c634300081e0033\n}\n",
				"bytecode": {
					"linkReferences": {},
					"object": "6080604052604051806101a001604052806040518060400160405280600181526020017f4d0000000000000000000000000000000000000000000000000000000000000081525081526020016040518060400160405280600281526020017f434d00000000000000000000000000000000000000000000000000000000000081525081526020016040518060400160405280600181526020017f440000000000000000000000000000000000000000000000000000000000000081525081526020016040518060400160405280600281526020017f434400000000000000000000000000000000000000000000000000000000000081525081526020016040518060400160405280600181526020017f430000000000000000000000000000000000000000000000000000000000000081525081526020016040518060400160405280600281526020017f584300000000000000000000000000000000000000000000000000000000000081525081526020016040518060400160405280600181526020017f4c0000000000000000000000000000000000000000000000000000000000000081525081526020016040518060400160405280600281526020017f584c00000000000000000000000000000000000000000000000000000000000081525081526020016040518060400160405280600181526020017f580000000000000000000000000000000000000000000000000000000000000081525081526020016040518060400160405280600281526020017f495800000000000000000000000000000000000000000000000000000000000081525081526020016040518060400160405280600181526020017f560000000000000000000000000000000000000000000000000000000000000081525081526020016040518060400160405280600281526020017f495600000000000000000000000000000000000000000000000000000000000081525081526020016040518060400160405280600181526020017f49000000000000000000000000000000000000000000000000000000000000008152508152505f90600d61031c9291906103dc565b50604051806101a001604052806103e861ffff16815260200161038461ffff1681526020016101f461ffff16815260200161019061ffff168152602001606461ffff168152602001605a61ffff168152602001603261ffff168152602001602861ffff168152602001600a61ffff168152602001600961ffff168152602001600561ffff168152602001600461ffff168152602001600161ffff16815250600d90600d6103ca929190610428565b503480156103d6575f5ffd5b5061084b565b82600d8101928215610417579160200282015b82811115610416578251829081610406919061077c565b50916020019190600101906103ef565b5b50905061042491906104c4565b5090565b82600d600f016010900481019282156104b3579160200282015f5b8382111561048357835183826101000a81548161ffff021916908361ffff1602179055509260200192600201602081600101049283019260010302610443565b80156104b15782816101000a81549061ffff0219169055600201602081600101049283019260010302610483565b505b5090506104c091906104e7565b5090565b5b808211156104e3575f81816104da9190610502565b506001016104c5565b5090565b5b808211156104fe575f815f9055506001016104e8565b5090565b50805461050e906105a3565b5f825580601f1061051f575061053c565b601f0160209004905f5260205f209081019061053b91906104e7565b5b50565b5f81519050919050565b7f4e487b71000000000000000000000000000000000000000000000000000000005f52604160045260245ffd5b7f4e487b71000000000000000000000000000000000000000000000000000000005f52602260045260245ffd5b5f60028204905060018216806105ba57607f821691505b6020821081036105cd576105cc610576565b5b50919050565b5f819050815f5260205f209050919050565b5f6020601f8301049050919050565b5f82821b905092915050565b5f6008830261062f7fffffffffffffffffffffffffffffffffffffffffffffffffffffffffffffffff826105f4565b61063986836105f4565b95508019841693508086168417925050509392505050565b5f819050919050565b5f819050919050565b5f61067d61067861067384610651565b61065a565b610651565b9050919050565b5f819050919050565b61069683610663565b6106aa6106a282610684565b848454610600565b825550505050565b5f5f905090565b6106c16106b2565b6106cc81848461068d565b505050565b5b818110156106ef576106e45f826106b9565b6001810190506106d2565b5050565b601f82111561073457610705816105d3565b61070e846105e5565b8101602085101561071d578190505b610731610729856105e5565b8301826106d1565b50505b505050565b5f82821c905092915050565b5f6107545f1984600802610739565b1980831691505092915050565b5f61076c8383610745565b9150826002028217905092915050565b6107858261053f565b67ffffffffffffffff81111561079e5761079d610549565b5b6107a882546105a3565b6107b38282856106f3565b5f60209050601f8311600181146107e4575f84156107d2578287015190505b6107dc8582610761565b865550610843565b601f1984166107f2866105d3565b5f5b82811015610819578489015182556001820191506020850194506020810190506107f4565b868310156108365784890151610832601f891682610745565b8355505b6001600288020188555050505b505050505050565b6104f9806108585f395ff3fe608060405234801561000f575f5ffd5b5060043610610029575f3560e01c8063ab7baabe1461002d575b5f5ffd5b610047600480360381019061004291906101b3565b61005d565b604051610054919061024e565b60405180910390f35b60605f82116100a1576040517f08c379a0000000000000000000000000000000000000000000000000000000008152600401610098906102b8565b60405180910390fd5b60605f5f90505b600d811015610172575b600d81600d81106100c6576100c56102d6565b5b601091828204019190066002029054906101000a900461ffff1661ffff16841061016557600d81600d81106100fe576100fd6102d6565b5b601091828204019190066002029054906101000a900461ffff1661ffff16846101279190610330565b9350815f82600d811061013d5761013c6102d6565b5b0160405160200161014f9291906104a0565b60405160208183030381529060405291506100b2565b80806001019150506100a8565b5080915050919050565b5f5ffd5b5f819050919050565b61019281610180565b811461019c575f5ffd5b50565b5f813590506101ad81610189565b92915050565b5f602082840312156101c8576101c761017c565b5b5f6101d58482850161019f565b91505092915050565b5f81519050919050565b5f82825260208201905092915050565b8281835e5f83830152505050565b5f601f19601f8301169050919050565b5f610220826101de565b61022a81856101e8565b935061023a8185602086016101f8565b61024381610206565b840191505092915050565b5f6020820190508181035f8301526102668184610216565b905092915050565b7f4d75737420626520706f736974697665000000000000000000000000000000005f82015250565b5f6102a26010836101e8565b91506102ad8261026e565b602082019050919050565b5f6020820190508181035f8301526102cf81610296565b9050919050565b7f4e487b71000000000000000000000000000000000000000000000000000000005f52603260045260245ffd5b7f4e487b71000000000000000000000000000000000000000000000000000000005f52601160045260245ffd5b5f61033a82610180565b915061034583610180565b925082820390508181111561035d5761035c610303565b5b92915050565b5f81519050919050565b5f81905092915050565b5f61038182610363565b61038b818561036d565b935061039b8185602086016101f8565b80840191505092915050565b7f4e487b71000000000000000000000000000000000000000000000000000000005f52602260045260245ffd5b5f60028204905060018216806103eb57607f821691505b6020821081036103fe576103fd6103a7565b5b50919050565b5f81905092915050565b5f819050815f5260205f209050919050565b5f815461042c816103d4565b6104368186610404565b9450600182165f8114610450576001811461046557610497565b60ff1983168652811515820286019350610497565b61046e8561040e565b5f5b8381101561048f57815481890152600182019150602081019050610470565b838801955050505b50505092915050565b5f6104ab8285610377565b91506104b78284610420565b9150819050939250505056fea2646970667358221220619f0fc84337260527b3a63b88ba992e9c48af9ba783784615f99526fb25cece64736f6c634300081e0033",
					"opcodes": "PUSH1 0x80 PUSH1 0x40 MSTORE PUSH1 0x40 MLOAD DUP1 PUSH2 0x1A0 ADD PUSH1 0x40 MSTORE DUP1 PUSH1 0x40 MLOAD DUP1 PUSH1 0x40 ADD PUSH1 0x40 MSTORE DUP1 PUSH1 0x1 DUP2 MSTORE PUSH1 0x20 ADD PUSH32 0x4D00000000000000000000000000000000000000000000000000000000000000 DUP2 MSTORE POP DUP2 MSTORE PUSH1 0x20 ADD PUSH1 0x40 MLOAD DUP1 PUSH1 0x40 ADD PUSH1 0x40 MSTORE DUP1 PUSH1 0x2 DUP2 MSTORE PUSH1 0x20 ADD PUSH32 0x434D000000000000000000000000000000000000000000000000000000000000 DUP2 MSTORE POP DUP2 MSTORE PUSH1 0x20 ADD PUSH1 0x40 MLOAD DUP1 PUSH1 0x40 ADD PUSH1 0x40 MSTORE DUP1 PUSH1 0x1 DUP2 MSTORE PUSH1 0x20 ADD PUSH32 0x4400000000000000000000000000000000000000000000000000000000000000 DUP2 MSTORE POP DUP2 MSTORE PUSH1 0x20 ADD PUSH1 0x40 MLOAD DUP1 PUSH1 0x40 ADD PUSH1 0x40 MSTORE DUP1 PUSH1 0x2 DUP2 MSTORE PUSH1 0x20 ADD PUSH32 0x4344000000000000000000000000000000000000000000000000000000000000 DUP2 MSTORE POP DUP2 MSTORE PUSH1 0x20 ADD PUSH1 0x40 MLOAD DUP1 PUSH1 0x40 ADD PUSH1 0x40 MSTORE DUP1 PUSH1 0x1 DUP2 MSTORE PUSH1 0x20 ADD PUSH32 0x4300000000000000000000000000000000000000000000000000000000000000 DUP2 MSTORE POP DUP2 MSTORE PUSH1 0x20 ADD PUSH1 0x40 MLOAD DUP1 PUSH1 0x40 ADD PUSH1 0x40 MSTORE DUP1 PUSH1 0x2 DUP2 MSTORE PUSH1 0x20 ADD PUSH32 0x5843000000000000000000000000000000000000000000000000000000000000 DUP2 MSTORE POP DUP2 MSTORE PUSH1 0x20 ADD PUSH1 0x40 MLOAD DUP1 PUSH1 0x40 ADD PUSH1 0x40 MSTORE DUP1 PUSH1 0x1 DUP2 MSTORE PUSH1 0x20 ADD PUSH32 0x4C00000000000000000000000000000000000000000000000000000000000000 DUP2 MSTORE POP DUP2 MSTORE PUSH1 0x20 ADD PUSH1 0x40 MLOAD DUP1 PUSH1 0x40 ADD PUSH1 0x40 MSTORE DUP1 PUSH1 0x2 DUP2 MSTORE PUSH1 0x20 ADD PUSH32 0x584C000000000000000000000000000000000000000000000000000000000000 DUP2 MSTORE POP DUP2 MSTORE PUSH1 0x20 ADD PUSH1 0x40 MLOAD DUP1 PUSH1 0x40 ADD PUSH1 0x40 MSTORE DUP1 PUSH1 0x1 DUP2 MSTORE PUSH1 0x20 ADD PUSH32 0x5800000000000000000000000000000000000000000000000000000000000000 DUP2 MSTORE POP DUP2 MSTORE PUSH1 0x20 ADD PUSH1 0x40 MLOAD DUP1 PUSH1 0x40 ADD PUSH1 0x40 MSTORE DUP1 PUSH1 0x2 DUP2 MSTORE PUSH1 0x20 ADD PUSH32 0x4958000000000000000000000000000000000000000000000000000000000000 DUP2 MSTORE POP DUP2 MSTORE PUSH1 0x20 ADD PUSH1 0x40 MLOAD DUP1 PUSH1 0x40 ADD PUSH1 0x40 MSTORE DUP1 PUSH1 0x1 DUP2 MSTORE PUSH1 0x20 ADD PUSH32 0x5600000000000000000000000000000000000000000000000000000000000000 DUP2 MSTORE POP DUP2 MSTORE PUSH1 0x20 ADD PUSH1 0x40 MLOAD DUP1 PUSH1 0x40 ADD PUSH1 0x40 MSTORE DUP1 PUSH1 0x2 DUP2 MSTORE PUSH1 0x20 ADD PUSH32 0x4956000000000000000000000000000000000000000000000000000000000000 DUP2 MSTORE POP DUP2 MSTORE PUSH1 0x20 ADD PUSH1 0x40 MLOAD DUP1 PUSH1 0x40 ADD PUSH1 0x40 MSTORE DUP1 PUSH1 0x1 DUP2 MSTORE PUSH1 0x20 ADD PUSH32 0x4900000000000000000000000000000000000000000000000000000000000000 DUP2 MSTORE POP DUP2 MSTORE POP PUSH0 SWAP1 PUSH1 0xD PUSH2 0x31C SWAP3 SWAP2 SWAP1 PUSH2 0x3DC JUMP JUMPDEST POP PUSH1 0x40 MLOAD DUP1 PUSH2 0x1A0 ADD PUSH1 0x40 MSTORE DUP1 PUSH2 0x3E8 PUSH2 0xFFFF AND DUP2 MSTORE PUSH1 0x20 ADD PUSH2 0x384 PUSH2 0xFFFF AND DUP2 MSTORE PUSH1 0x20 ADD PUSH2 0x1F4 PUSH2 0xFFFF AND DUP2 MSTORE PUSH1 0x20 ADD PUSH2 0x190 PUSH2 0xFFFF AND DUP2 MSTORE PUSH1 0x20 ADD PUSH1 0x64 PUSH2 0xFFFF AND DUP2 MSTORE PUSH1 0x20 ADD PUSH1 0x5A PUSH2 0xFFFF AND DUP2 MSTORE PUSH1 0x20 ADD PUSH1 0x32 PUSH2 0xFFFF AND DUP2 MSTORE PUSH1 0x20 ADD PUSH1 0x28 PUSH2 0xFFFF AND DUP2 MSTORE PUSH1 0x20 ADD PUSH1 0xA PUSH2 0xFFFF AND DUP2 MSTORE PUSH1 0x20 ADD PUSH1 0x9 PUSH2 0xFFFF AND DUP2 MSTORE PUSH1 0x20 ADD PUSH1 0x5 PUSH2 0xFFFF AND DUP2 MSTORE PUSH1 0x20 ADD PUSH1 0x4 PUSH2 0xFFFF AND DUP2 MSTORE PUSH1 0x20 ADD PUSH1 0x1 PUSH2 0xFFFF AND DUP2 MSTORE POP PUSH1 0xD SWAP1 PUSH1 0xD PUSH2 0x3CA SWAP3 SWAP2 SWAP1 PUSH2 0x428 JUMP JUMPDEST POP CALLVALUE DUP1 ISZERO PUSH2 0x3D6 JUMPI PUSH0 PUSH0 REVERT JUMPDEST POP PUSH2 0x84B JUMP JUMPDEST DUP3 PUSH1 0xD DUP2 ADD SWAP3 DUP3 ISZERO PUSH2 0x417 JUMPI SWAP2 PUSH1 0x20 MUL DUP3 ADD JUMPDEST DUP3 DUP2 GT ISZERO PUSH2 0x416 JUMPI DUP3 MLOAD DUP3 SWAP1 DUP2 PUSH2 0x406 SWAP2 SWAP1 PUSH2 0x77C JUMP JUMPDEST POP SWAP2 PUSH1 0x20 ADD SWAP2 SWAP1 PUSH1 0x1 ADD SWAP1 PUSH2 0x3EF JUMP JUMPDEST JUMPDEST POP SWAP1 POP PUSH2 0x424 SWAP2 SWAP1 PUSH2 0x4C4 JUMP JUMPDEST POP SWAP1 JUMP JUMPDEST DUP3 PUSH1 0xD PUSH1 0xF ADD PUSH1 0x10 SWAP1 DIV DUP2 ADD SWAP3 DUP3 ISZERO PUSH2 0x4B3 JUMPI SWAP2 PUSH1 0x20 MUL DUP3 ADD PUSH0 JUMPDEST DUP4 DUP3 GT ISZERO PUSH2 0x483 JUMPI DUP4 MLOAD DUP4 DUP3 PUSH2 0x100 EXP DUP2 SLOAD DUP2 PUSH2 0xFFFF MUL NOT AND SWAP1 DUP4 PUSH2 0xFFFF AND MUL OR SWAP1 SSTORE POP SWAP3 PUSH1 0x20 ADD SWAP3 PUSH1 0x2 ADD PUSH1 0x20 DUP2 PUSH1 0x1 ADD DIV SWAP3 DUP4 ADD SWAP3 PUSH1 0x1 SUB MUL PUSH2 0x443 JUMP JUMPDEST DUP1 ISZERO PUSH2 0x4B1 JUMPI DUP3 DUP2 PUSH2 0x100 EXP DUP2 SLOAD SWAP1 PUSH2 0xFFFF MUL NOT AND SWAP1 SSTORE PUSH1 0x2 ADD PUSH1 0x20 DUP2 PUSH1 0x1 ADD DIV SWAP3 DUP4 ADD SWAP3 PUSH1 0x1 SUB MUL PUSH2 0x483 JUMP JUMPDEST POP JUMPDEST POP SWAP1 POP PUSH2 0x4C0 SWAP2 SWAP1 PUSH2 0x4E7 JUMP JUMPDEST POP SWAP1 JUMP JUMPDEST JUMPDEST DUP1 DUP3 GT ISZERO PUSH2 0x4E3 JUMPI PUSH0 DUP2 DUP2 PUSH2 0x4DA SWAP2 SWAP1 PUSH2 0x502 JUMP JUMPDEST POP PUSH1 0x1 ADD PUSH2 0x4C5 JUMP JUMPDEST POP SWAP1 JUMP JUMPDEST JUMPDEST DUP1 DUP3 GT ISZERO PUSH2 0x4FE JUMPI PUSH0 DUP2 PUSH0 SWAP1 SSTORE POP PUSH1 0x1 ADD PUSH2 0x4E8 JUMP JUMPDEST POP SWAP1 JUMP JUMPDEST POP DUP1 SLOAD PUSH2 0x50E SWAP1 PUSH2 0x5A3 JUMP JUMPDEST PUSH0 DUP3 SSTORE DUP1 PUSH1 0x1F LT PUSH2 0x51F JUMPI POP PUSH2 0x53C JUMP JUMPDEST PUSH1 0x1F ADD PUSH1 0x20 SWAP1 DIV SWAP1 PUSH0 MSTORE PUSH1 0x20 PUSH0 KECCAK256 SWAP1 DUP2 ADD SWAP1 PUSH2 0x53B SWAP2 SWAP1 PUSH2 0x4E7 JUMP JUMPDEST JUMPDEST POP JUMP JUMPDEST PUSH0 DUP2 MLOAD SWAP1 POP SWAP2 SWAP1 POP JUMP JUMPDEST PUSH32 0x4E487B7100000000000000000000000000000000000000000000000000000000 PUSH0 MSTORE PUSH1 0x41 PUSH1 0x4 MSTORE PUSH1 0x24 PUSH0 REVERT JUMPDEST PUSH32 0x4E487B7100000000000000000000000000000000000000000000000000000000 PUSH0 MSTORE PUSH1 0x22 PUSH1 0x4 MSTORE PUSH1 0x24 PUSH0 REVERT JUMPDEST PUSH0 PUSH1 0x2 DUP3 DIV SWAP1 POP PUSH1 0x1 DUP3 AND DUP1 PUSH2 0x5BA JUMPI PUSH1 0x7F DUP3 AND SWAP2 POP JUMPDEST PUSH1 0x20 DUP3 LT DUP2 SUB PUSH2 0x5CD JUMPI PUSH2 0x5CC PUSH2 0x576 JUMP JUMPDEST JUMPDEST POP SWAP2 SWAP1 POP JUMP JUMPDEST PUSH0 DUP2 SWAP1 POP DUP2 PUSH0 MSTORE PUSH1 0x20 PUSH0 KECCAK256 SWAP1 POP SWAP2 SWAP1 POP JUMP JUMPDEST PUSH0 PUSH1 0x20 PUSH1 0x1F DUP4 ADD DIV SWAP1 POP SWAP2 SWAP1 POP JUMP JUMPDEST PUSH0 DUP3 DUP3 SHL SWAP1 POP SWAP3 SWAP2 POP POP JUMP JUMPDEST PUSH0 PUSH1 0x8 DUP4 MUL PUSH2 0x62F PUSH32 0xFFFFFFFFFFFFFFFFFFFFFFFFFFFFFFFFFFFFFFFFFFFFFFFFFFFFFFFFFFFFFFFF DUP3 PUSH2 0x5F4 JUMP JUMPDEST PUSH2 0x639 DUP7 DUP4 PUSH2 0x5F4 JUMP JUMPDEST SWAP6 POP DUP1 NOT DUP5 AND SWAP4 POP DUP1 DUP7 AND DUP5 OR SWAP3 POP POP POP SWAP4 SWAP3 POP POP POP JUMP JUMPDEST PUSH0 DUP2 SWAP1 POP SWAP2 SWAP1 POP JUMP JUMPDEST PUSH0 DUP2 SWAP1 POP SWAP2 SWAP1 POP JUMP JUMPDEST PUSH0 PUSH2 0x67D PUSH2 0x678 PUSH2 0x673 DUP5 PUSH2 0x651 JUMP JUMPDEST PUSH2 0x65A JUMP JUMPDEST PUSH2 0x651 JUMP JUMPDEST SWAP1 POP SWAP2 SWAP1 POP JUMP JUMPDEST PUSH0 DUP2 SWAP1 POP SWAP2 SWAP1 POP JUMP JUMPDEST PUSH2 0x696 DUP4 PUSH2 0x663 JUMP JUMPDEST PUSH2 0x6AA PUSH2 0x6A2 DUP3 PUSH2 0x684 JUMP JUMPDEST DUP5 DUP5 SLOAD PUSH2 0x600 JUMP JUMPDEST DUP3 SSTORE POP POP POP POP JUMP JUMPDEST PUSH0 PUSH0 SWAP1 POP SWAP1 JUMP JUMPDEST PUSH2 0x6C1 PUSH2 0x6B2 JUMP JUMPDEST PUSH2 0x6CC DUP2 DUP5 DUP5 PUSH2 0x68D JUMP JUMPDEST POP POP POP JUMP JUMPDEST JUMPDEST DUP2 DUP2 LT ISZERO PUSH2 0x6EF JUMPI PUSH2 0x6E4 PUSH0 DUP3 PUSH2 0x6B9 JUMP JUMPDEST PUSH1 0x1 DUP2 ADD SWAP1 POP PUSH2 0x6D2 JUMP JUMPDEST POP POP JUMP JUMPDEST PUSH1 0x1F DUP3 GT ISZERO PUSH2 0x734 JUMPI PUSH2 0x705 DUP2 PUSH2 0x5D3 JUMP JUMPDEST PUSH2 0x70E DUP5 PUSH2 0x5E5 JUMP JUMPDEST DUP2 ADD PUSH1 0x20 DUP6 LT ISZERO PUSH2 0x71D JUMPI DUP2 SWAP1 POP JUMPDEST PUSH2 0x731 PUSH2 0x729 DUP6 PUSH2 0x5E5 JUMP JUMPDEST DUP4 ADD DUP3 PUSH2 0x6D1 JUMP JUMPDEST POP POP JUMPDEST POP POP POP JUMP JUMPDEST PUSH0 DUP3 DUP3 SHR SWAP1 POP SWAP3 SWAP2 POP POP JUMP JUMPDEST PUSH0 PUSH2 0x754 PUSH0 NOT DUP5 PUSH1 0x8 MUL PUSH2 0x739 JUMP JUMPDEST NOT DUP1 DUP4 AND SWAP2 POP POP SWAP3 SWAP2 POP POP JUMP JUMPDEST PUSH0 PUSH2 0x76C DUP4 DUP4 PUSH2 0x745 JUMP JUMPDEST SWAP2 POP DUP3 PUSH1 0x2 MUL DUP3 OR SWAP1 POP SWAP3 SWAP2 POP POP JUMP JUMPDEST PUSH2 0x785 DUP3 PUSH2 0x53F JUMP JUMPDEST PUSH8 0xFFFFFFFFFFFFFFFF DUP2 GT ISZERO PUSH2 0x79E JUMPI PUSH2 0x79D PUSH2 0x549 JUMP JUMPDEST JUMPDEST PUSH2 0x7A8 DUP3 SLOAD PUSH2 0x5A3 JUMP JUMPDEST PUSH2 0x7B3 DUP3 DUP3 DUP6 PUSH2 0x6F3 JUMP JUMPDEST PUSH0 PUSH1 0x20 SWAP1 POP PUSH1 0x1F DUP4 GT PUSH1 0x1 DUP2 EQ PUSH2 0x7E4 JUMPI PUSH0 DUP5 ISZERO PUSH2 0x7D2 JUMPI DUP3 DUP8 ADD MLOAD SWAP1 POP JUMPDEST PUSH2 0x7DC DUP6 DUP3 PUSH2 0x761 JUMP JUMPDEST DUP7 SSTORE POP PUSH2 0x843 JUMP JUMPDEST PUSH1 0x1F NOT DUP5 AND PUSH2 0x7F2 DUP7 PUSH2 0x5D3 JUMP JUMPDEST PUSH0 JUMPDEST DUP3 DUP2 LT ISZERO PUSH2 0x819 JUMPI DUP5 DUP10 ADD MLOAD DUP3 SSTORE PUSH1 0x1 DUP3 ADD SWAP2 POP PUSH1 0x20 DUP6 ADD SWAP5 POP PUSH1 0x20 DUP2 ADD SWAP1 POP PUSH2 0x7F4 JUMP JUMPDEST DUP7 DUP4 LT ISZERO PUSH2 0x836 JUMPI DUP5 DUP10 ADD MLOAD PUSH2 0x832 PUSH1 0x1F DUP10 AND DUP3 PUSH2 0x745 JUMP JUMPDEST DUP4 SSTORE POP JUMPDEST PUSH1 0x1 PUSH1 0x2 DUP9 MUL ADD DUP9 SSTORE POP POP POP JUMPDEST POP POP POP POP POP POP JUMP JUMPDEST PUSH2 0x4F9 DUP1 PUSH2 0x858 PUSH0 CODECOPY PUSH0 RETURN INVALID PUSH1 0x80 PUSH1 0x40 MSTORE CALLVALUE DUP1 ISZERO PUSH2 0xF JUMPI PUSH0 PUSH0 REVERT JUMPDEST POP PUSH1 0x4 CALLDATASIZE LT PUSH2 0x29 JUMPI PUSH0 CALLDATALOAD PUSH1 0xE0 SHR DUP1 PUSH4 0xAB7BAABE EQ PUSH2 0x2D JUMPI JUMPDEST PUSH0 PUSH0 REVERT JUMPDEST PUSH2 0x47 PUSH1 0x4 DUP1 CALLDATASIZE SUB DUP2 ADD SWAP1 PUSH2 0x42 SWAP2 SWAP1 PUSH2 0x1B3 JUMP JUMPDEST PUSH2 0x5D JUMP JUMPDEST PUSH1 0x40 MLOAD PUSH2 0x54 SWAP2 SWAP1 PUSH2 0x24E JUMP JUMPDEST PUSH1 0x40 MLOAD DUP1 SWAP2 SUB SWAP1 RETURN JUMPDEST PUSH1 0x60 PUSH0 DUP3 GT PUSH2 0xA1 JUMPI PUSH1 0x40 MLOAD PUSH32 0x8C379A000000000000000000000000000000000000000000000000000000000 DUP2 MSTORE PUSH1 0x4 ADD PUSH2 0x98 SWAP1 PUSH2 0x2B8 JUMP JUMPDEST PUSH1 0x40 MLOAD DUP1 SWAP2 SUB SWAP1 REVERT JUMPDEST PUSH1 0x60 PUSH0 PUSH0 SWAP1 POP JUMPDEST PUSH1 0xD DUP2 LT ISZERO PUSH2 0x172 JUMPI JUMPDEST PUSH1 0xD DUP2 PUSH1 0xD DUP2 LT PUSH2 0xC6 JUMPI PUSH2 0xC5 PUSH2 0x2D6 JUMP JUMPDEST JUMPDEST PUSH1 0x10 SWAP2 DUP3 DUP3 DIV ADD SWAP2 SWAP1 MOD PUSH1 0x2 MUL SWAP1 SLOAD SWAP1 PUSH2 0x100 EXP SWAP1 DIV PUSH2 0xFFFF AND PUSH2 0xFFFF AND DUP5 LT PUSH2 0x165 JUMPI PUSH1 0xD DUP2 PUSH1 0xD DUP2 LT PUSH2 0xFE JUMPI PUSH2 0xFD PUSH2 0x2D6 JUMP JUMPDEST JUMPDEST PUSH1 0x10 SWAP2 DUP3 DUP3 DIV ADD SWAP2 SWAP1 MOD PUSH1 0x2 MUL SWAP1 SLOAD SWAP1 PUSH2 0x100 EXP SWAP1 DIV PUSH2 0xFFFF AND PUSH2 0xFFFF AND DUP5 PUSH2 0x127 SWAP2 SWAP1 PUSH2 0x330 JUMP JUMPDEST SWAP4 POP DUP2 PUSH0 DUP3 PUSH1 0xD DUP2 LT PUSH2 0x13D JUMPI PUSH2 0x13C PUSH2 0x2D6 JUMP JUMPDEST JUMPDEST ADD PUSH1 0x40 MLOAD PUSH1 0x20 ADD PUSH2 0x14F SWAP3 SWAP2 SWAP1 PUSH2 0x4A0 JUMP JUMPDEST PUSH1 0x40 MLOAD PUSH1 0x20 DUP2 DUP4 SUB SUB DUP2 MSTORE SWAP1 PUSH1 0x40 MSTORE SWAP2 POP PUSH2 0xB2 JUMP JUMPDEST DUP1 DUP1 PUSH1 0x1 ADD SWAP2 POP POP PUSH2 0xA8 JUMP JUMPDEST POP DUP1 SWAP2 POP POP SWAP2 SWAP1 POP JUMP JUMPDEST PUSH0 PUSH0 REVERT JUMPDEST PUSH0 DUP2 SWAP1 POP SWAP2 SWAP1 POP JUMP JUMPDEST PUSH2 0x192 DUP2 PUSH2 0x180 JUMP JUMPDEST DUP2 EQ PUSH2 0x19C JUMPI PUSH0 PUSH0 REVERT JUMPDEST POP JUMP JUMPDEST PUSH0 DUP2 CALLDATALOAD SWAP1 POP PUSH2 0x1AD DUP2 PUSH2 0x189 JUMP JUMPDEST SWAP3 SWAP2 POP POP JUMP JUMPDEST PUSH0 PUSH1 0x20 DUP3 DUP5 SUB SLT ISZERO PUSH2 0x1C8 JUMPI PUSH2 0x1C7 PUSH2 0x17C JUMP JUMPDEST JUMPDEST PUSH0 PUSH2 0x1D5 DUP5 DUP3 DUP6 ADD PUSH2 0x19F JUMP JUMPDEST SWAP2 POP POP SWAP3 SWAP2 POP POP JUMP JUMPDEST PUSH0 DUP2 MLOAD SWAP1 POP SWAP2 SWAP1 POP JUMP JUMPDEST PUSH0 DUP3 DUP3 MSTORE PUSH1 0x20 DUP3 ADD SWAP1 POP SWAP3 SWAP2 POP POP JUMP JUMPDEST DUP3 DUP2 DUP4 MCOPY PUSH0 DUP4 DUP4 ADD MSTORE POP POP POP JUMP JUMPDEST PUSH0 PUSH1 0x1F NOT PUSH1 0x1F DUP4 ADD AND SWAP1 POP SWAP2 SWAP1 POP JUMP JUMPDEST PUSH0 PUSH2 0x220 DUP3 PUSH2 0x1DE JUMP JUMPDEST PUSH2 0x22A DUP2 DUP6 PUSH2 0x1E8 JUMP JUMPDEST SWAP4 POP PUSH2 0x23A DUP2 DUP6 PUSH1 0x20 DUP7 ADD PUSH2 0x1F8 JUMP JUMPDEST PUSH2 0x243 DUP2 PUSH2 0x206 JUMP JUMPDEST DUP5 ADD SWAP2 POP POP SWAP3 SWAP2 POP POP JUMP JUMPDEST PUSH0 PUSH1 0x20 DUP3 ADD SWAP1 POP DUP2 DUP2 SUB PUSH0 DUP4 ADD MSTORE PUSH2 0x266 DUP2 DUP5 PUSH2 0x216 JUMP JUMPDEST SWAP1 POP SWAP3 SWAP2 POP POP JUMP JUMPDEST PUSH32 0x4D75737420626520706F73697469766500000000000000000000000000000000 PUSH0 DUP3 ADD MSTORE POP JUMP JUMPDEST PUSH0 PUSH2 0x2A2 PUSH1 0x10 DUP4 PUSH2 0x1E8 JUMP JUMPDEST SWAP2 POP PUSH2 0x2AD DUP3 PUSH2 0x26E JUMP JUMPDEST PUSH1 0x20 DUP3 ADD SWAP1 POP SWAP2 SWAP1 POP JUMP JUMPDEST PUSH0 PUSH1 0x20 DUP3 ADD SWAP1 POP DUP2 DUP2 SUB PUSH0 DUP4 ADD MSTORE PUSH2 0x2CF DUP2 PUSH2 0x296 JUMP JUMPDEST SWAP1 POP SWAP2 SWAP1 POP JUMP JUMPDEST PUSH32 0x4E487B7100000000000000000000000000000000000000000000000000000000 PUSH0 MSTORE PUSH1 0x32 PUSH1 0x4 MSTORE PUSH1 0x24 PUSH0 REVERT JUMPDEST PUSH32 0x4E487B7100000000000000000000000000000000000000000000000000000000 PUSH0 MSTORE PUSH1 0x11 PUSH1 0x4 MSTORE PUSH1 0x24 PUSH0 REVERT JUMPDEST PUSH0 PUSH2 0x33A DUP3 PUSH2 0x180 JUMP JUMPDEST SWAP2 POP PUSH2 0x345 DUP4 PUSH2 0x180 JUMP JUMPDEST SWAP3 POP DUP3 DUP3 SUB SWAP1 POP DUP2 DUP2 GT ISZERO PUSH2 0x35D JUMPI PUSH2 0x35C PUSH2 0x303 JUMP JUMPDEST JUMPDEST SWAP3 SWAP2 POP POP JUMP JUMPDEST PUSH0 DUP2 MLOAD SWAP1 POP SWAP2 SWAP1 POP JUMP JUMPDEST PUSH0 DUP2 SWAP1 POP SWAP3 SWAP2 POP POP JUMP JUMPDEST PUSH0 PUSH2 0x381 DUP3 PUSH2 0x363 JUMP JUMPDEST PUSH2 0x38B DUP2 DUP6 PUSH2 0x36D JUMP JUMPDEST SWAP4 POP PUSH2 0x39B DUP2 DUP6 PUSH1 0x20 DUP7 ADD PUSH2 0x1F8 JUMP JUMPDEST DUP1 DUP5 ADD SWAP2 POP POP SWAP3 SWAP2 POP POP JUMP JUMPDEST PUSH32 0x4E487B7100000000000000000000000000000000000000000000000000000000 PUSH0 MSTORE PUSH1 0x22 PUSH1 0x4 MSTORE PUSH1 0x24 PUSH0 REVERT JUMPDEST PUSH0 PUSH1 0x2 DUP3 DIV SWAP1 POP PUSH1 0x1 DUP3 AND DUP1 PUSH2 0x3EB JUMPI PUSH1 0x7F DUP3 AND SWAP2 POP JUMPDEST PUSH1 0x20 DUP3 LT DUP2 SUB PUSH2 0x3FE JUMPI PUSH2 0x3FD PUSH2 0x3A7 JUMP JUMPDEST JUMPDEST POP SWAP2 SWAP1 POP JUMP JUMPDEST PUSH0 DUP2 SWAP1 POP SWAP3 SWAP2 POP POP JUMP JUMPDEST PUSH0 DUP2 SWAP1 POP DUP2 PUSH0 MSTORE PUSH1 0x20 PUSH0 KECCAK256 SWAP1 POP SWAP2 SWAP1 POP JUMP JUMPDEST PUSH0 DUP2 SLOAD PUSH2 0x42C DUP2 PUSH2 0x3D4 JUMP JUMPDEST PUSH2 0x436 DUP2 DUP7 PUSH2 0x404 JUMP JUMPDEST SWAP5 POP PUSH1 0x1 DUP3 AND PUSH0 DUP2 EQ PUSH2 0x450 JUMPI PUSH1 0x1 DUP2 EQ PUSH2 0x465 JUMPI PUSH2 0x497 JUMP JUMPDEST PUSH1 0xFF NOT DUP4 AND DUP7 MSTORE DUP2 ISZERO ISZERO DUP3 MUL DUP7 ADD SWAP4 POP PUSH2 0x497 JUMP JUMPDEST PUSH2 0x46E DUP6 PUSH2 0x40E JUMP JUMPDEST PUSH0 JUMPDEST DUP4 DUP2 LT ISZERO PUSH2 0x48F JUMPI DUP2 SLOAD DUP2 DUP10 ADD MSTORE PUSH1 0x1 DUP3 ADD SWAP2 POP PUSH1 0x20 DUP2 ADD SWAP1 POP PUSH2 0x470 JUMP JUMPDEST DUP4 DUP9 ADD SWAP6 POP POP POP JUMPDEST POP POP POP SWAP3 SWAP2 POP POP JUMP JUMPDEST PUSH0 PUSH2 0x4AB DUP3 DUP6 PUSH2 0x377 JUMP JUMPDEST SWAP2 POP PUSH2 0x4B7 DUP3 DUP5 PUSH2 0x420 JUMP JUMPDEST SWAP2 POP DUP2 SWAP1 POP SWAP4 SWAP3 POP POP POP JUMP INVALID LOG2 PUSH5 0x6970667358 0x22 SLT KECCAK256 PUSH2 0x9F0F 0xC8 NUMBER CALLDATACOPY 0x26 SDIV 0x27 0xB3 0xA6 EXTCODESIZE DUP9 0xBA SWAP10 0x2E SWAP13 BASEFEE 0xAF SWAP12 0xA7 DUP4 PUSH25 0x4615F99526FB25CECE64736F6C634300081E00330000000000 "
				},
				"gasEstimates": {
					"creation": {
						"codeDepositCost": "254600",
						"executionCost": "infinite",
						"totalCost": "infinite"
					},
					"external": {
						"toRoman(uint256)": "infinite"
					}
				},
				"methodIdentifiers": {
					"toRoman(uint256)": "ab7baabe"
				}
			},
			"storageLayout": {
				"storage": [
					{
						"astId": 19,
						"contract": "Task1/ITR.sol:ITR",
						"label": "romanSymbols",
						"offset": 0,
						"slot": "0",
						"type": "t_array(t_string_storage)13_storage"
					},
					{
						"astId": 37,
						"contract": "Task1/ITR.sol:ITR",
						"label": "romanValues",
						"offset": 0,
						"slot": "13",
						"type": "t_array(t_uint16)13_storage"
					}
				],
				"types": {
					"t_array(t_string_storage)13_storage": {
						"base": "t_string_storage",
						"encoding": "inplace",
						"label": "string[13]",
						"numberOfBytes": "416"
					},
					"t_array(t_uint16)13_storage": {
						"base": "t_uint16",
						"encoding": "inplace",
						"label": "uint16[13]",
						"numberOfBytes": "32"
					},
					"t_string_storage": {
						"encoding": "bytes",
						"label": "string",
						"numberOfBytes": "32"
					},
					"t_uint16": {
						"encoding": "inplace",
						"label": "uint16",
						"numberOfBytes": "2"
					}
				}
			},
			"userdoc": {
				"kind": "user",
				"methods": {},
				"version": 1
			}
		}
	}
}