{
	"data": {
		"bytecode": {
			"linkReferences": {},
			"object": "6080604052348015600e575f5ffd5b506106e38061001c5f395ff3fe608060405234801561000f575f5ffd5b5060043610610029575f3560e01c806317a60fc41461002d575b5f5ffd5b610047600480360381019061004291906104fd565b61005d565b604051610054919061055c565b60405180910390f35b5f5f8290505f5f90505f5f90505b8251811015610124575f61009b84838151811061008b5761008a610575565b5b602001015160f81c60f81b61012f565b90505f5f905084516001846100b091906105cf565b10156100eb576100e8856001856100c791906105cf565b815181106100d8576100d7610575565b5b602001015160f81c60f81b61012f565b90505b808210156101065781846100ff9190610602565b9350610115565b818461011291906105cf565b93505b5050808060010191505061006b565b508092505050919050565b5f7f4900000000000000000000000000000000000000000000000000000000000000827effffffffffffffffffffffffffffffffffffffffffffffffffffffffffffff19160361018257600190506103ab565b7f5600000000000000000000000000000000000000000000000000000000000000827effffffffffffffffffffffffffffffffffffffffffffffffffffffffffffff1916036101d457600590506103ab565b7f5800000000000000000000000000000000000000000000000000000000000000827effffffffffffffffffffffffffffffffffffffffffffffffffffffffffffff19160361022657600a90506103ab565b7f4c00000000000000000000000000000000000000000000000000000000000000827effffffffffffffffffffffffffffffffffffffffffffffffffffffffffffff19160361027857603290506103ab565b7f4300000000000000000000000000000000000000000000000000000000000000827effffffffffffffffffffffffffffffffffffffffffffffffffffffffffffff1916036102ca57606490506103ab565b7f4400000000000000000000000000000000000000000000000000000000000000827effffffffffffffffffffffffffffffffffffffffffffffffffffffffffffff19160361031d576101f490506103ab565b7f4d00000000000000000000000000000000000000000000000000000000000000827effffffffffffffffffffffffffffffffffffffffffffffffffffffffffffff191603610370576103e890506103ab565b6040517f08c379a00000000000000000000000000000000000000000000000000000000081526004016103a29061068f565b60405180910390fd5b919050565b5f604051905090565b5f5ffd5b5f5ffd5b5f5ffd5b5f5ffd5b5f601f19601f8301169050919050565b7f4e487b71000000000000000000000000000000000000000000000000000000005f52604160045260245ffd5b61040f826103c9565b810181811067ffffffffffffffff8211171561042e5761042d6103d9565b5b80604052505050565b5f6104406103b0565b905061044c8282610406565b919050565b5f67ffffffffffffffff82111561046b5761046a6103d9565b5b610474826103c9565b9050602081019050919050565b828183375f83830152505050565b5f6104a161049c84610451565b610437565b9050828152602081018484840111156104bd576104bc6103c5565b5b6104c8848285610481565b509392505050565b5f82601f8301126104e4576104e36103c1565b5b81356104f484826020860161048f565b91505092915050565b5f60208284031215610512576105116103b9565b5b5f82013567ffffffffffffffff81111561052f5761052e6103bd565b5b61053b848285016104d0565b91505092915050565b5f819050919050565b61055681610544565b82525050565b5f60208201905061056f5f83018461054d565b92915050565b7f4e487b71000000000000000000000000000000000000000000000000000000005f52603260045260245ffd5b7f4e487b71000000000000000000000000000000000000000000000000000000005f52601160045260245ffd5b5f6105d982610544565b91506105e483610544565b92508282019050808211156105fc576105fb6105a2565b5b92915050565b5f61060c82610544565b915061061783610544565b925082820390508181111561062f5761062e6105a2565b5b92915050565b5f82825260208201905092915050565b7f496e76616c696420526f6d616e206e756d6572616c00000000000000000000005f82015250565b5f610679601583610635565b915061068482610645565b602082019050919050565b5f6020820190508181035f8301526106a68161066d565b905091905056fea26469706673582212203e5b8ac21f04d922a69b65976acd7d5c3b81b44d41015ba7cbad75815a6d67d564736f6c634300081e0033",
			"opcodes": "PUSH1 0x80 PUSH1 0x40 MSTORE CALLVALUE DUP1 ISZERO PUSH1 0xE JUMPI PUSH0 PUSH0 REVERT JUMPDEST POP PUSH2 0x6E3 DUP1 PUSH2 0x1C PUSH0 CODECOPY PUSH0 RETURN INVALID PUSH1 0x80 PUSH1 0x40 MSTORE CALLVALUE DUP1 ISZERO PUSH2 0xF JUMPI PUSH0 PUSH0 REVERT JUMPDEST POP PUSH1 0x4 CALLDATASIZE LT PUSH2 0x29 JUMPI PUSH0 CALLDATALOAD PUSH1 0xE0 SHR DUP1 PUSH4 0x17A60FC4 EQ PUSH2 0x2D JUMPI JUMPDEST PUSH0 PUSH0 REVERT JUMPDEST PUSH2 0x47 PUSH1 0x4 DUP1 CALLDATASIZE SUB DUP2 ADD SWAP1 PUSH2 0x42 SWAP2 SWAP1 PUSH2 0x4FD JUMP JUMPDEST PUSH2 0x5D JUMP JUMPDEST PUSH1 0x40 MLOAD PUSH2 0x54 SWAP2 SWAP1 PUSH2 0x55C JUMP JUMPDEST PUSH1 0x40 MLOAD DUP1 SWAP2 SUB SWAP1 RETURN JUMPDEST PUSH0 PUSH0 DUP3 SWAP1 POP PUSH0 PUSH0 SWAP1 POP PUSH0 PUSH0 SWAP1 POP JUMPDEST DUP3 MLOAD DUP2 LT ISZERO PUSH2 0x124 JUMPI PUSH0 PUSH2 0x9B DUP5 DUP4 DUP2 MLOAD DUP2 LT PUSH2 0x8B JUMPI PUSH2 0x8A PUSH2 0x575 JUMP JUMPDEST JUMPDEST PUSH1 0x20 ADD ADD MLOAD PUSH1 0xF8 SHR PUSH1 0xF8 SHL PUSH2 0x12F JUMP JUMPDEST SWAP1 POP PUSH0 PUSH0 SWAP1 POP DUP5 MLOAD PUSH1 0x1 DUP5 PUSH2 0xB0 SWAP2 SWAP1 PUSH2 0x5CF JUMP JUMPDEST LT ISZERO PUSH2 0xEB JUMPI PUSH2 0xE8 DUP6 PUSH1 0x1 DUP6 PUSH2 0xC7 SWAP2 SWAP1 PUSH2 0x5CF JUMP JUMPDEST DUP2 MLOAD DUP2 LT PUSH2 0xD8 JUMPI PUSH2 0xD7 PUSH2 0x575 JUMP JUMPDEST JUMPDEST PUSH1 0x20 ADD ADD MLOAD PUSH1 0xF8 SHR PUSH1 0xF8 SHL PUSH2 0x12F JUMP JUMPDEST SWAP1 POP JUMPDEST DUP1 DUP3 LT ISZERO PUSH2 0x106 JUMPI DUP2 DUP5 PUSH2 0xFF SWAP2 SWAP1 PUSH2 0x602 JUMP JUMPDEST SWAP4 POP PUSH2 0x115 JUMP JUMPDEST DUP2 DUP5 PUSH2 0x112 SWAP2 SWAP1 PUSH2 0x5CF JUMP JUMPDEST SWAP4 POP JUMPDEST POP POP DUP1 DUP1 PUSH1 0x1 ADD SWAP2 POP POP PUSH2 0x6B JUMP JUMPDEST POP DUP1 SWAP3 POP POP POP SWAP2 SWAP1 POP JUMP JUMPDEST PUSH0 PUSH32 0x4900000000000000000000000000000000000000000000000000000000000000 DUP3 PUSH31 0xFFFFFFFFFFFFFFFFFFFFFFFFFFFFFFFFFFFFFFFFFFFFFFFFFFFFFFFFFFFFFF NOT AND SUB PUSH2 0x182 JUMPI PUSH1 0x1 SWAP1 POP PUSH2 0x3AB JUMP JUMPDEST PUSH32 0x5600000000000000000000000000000000000000000000000000000000000000 DUP3 PUSH31 0xFFFFFFFFFFFFFFFFFFFFFFFFFFFFFFFFFFFFFFFFFFFFFFFFFFFFFFFFFFFFFF NOT AND SUB PUSH2 0x1D4 JUMPI PUSH1 0x5 SWAP1 POP PUSH2 0x3AB JUMP JUMPDEST PUSH32 0x5800000000000000000000000000000000000000000000000000000000000000 DUP3 PUSH31 0xFFFFFFFFFFFFFFFFFFFFFFFFFFFFFFFFFFFFFFFFFFFFFFFFFFFFFFFFFFFFFF NOT AND SUB PUSH2 0x226 JUMPI PUSH1 0xA SWAP1 POP PUSH2 0x3AB JUMP JUMPDEST PUSH32 0x4C00000000000000000000000000000000000000000000000000000000000000 DUP3 PUSH31 0xFFFFFFFFFFFFFFFFFFFFFFFFFFFFFFFFFFFFFFFFFFFFFFFFFFFFFFFFFFFFFF NOT AND SUB PUSH2 0x278 JUMPI PUSH1 0x32 SWAP1 POP PUSH2 0x3AB JUMP JUMPDEST PUSH32 0x4300000000000000000000000000000000000000000000000000000000000000 DUP3 PUSH31 0xFFFFFFFFFFFFFFFFFFFFFFFFFFFFFFFFFFFFFFFFFFFFFFFFFFFFFFFFFFFFFF NOT AND SUB PUSH2 0x2CA JUMPI PUSH1 0x64 SWAP1 POP PUSH2 0x3AB JUMP JUMPDEST PUSH32 0x4400000000000000000000000000000000000000000000000000000000000000 DUP3 PUSH31 0xFFFFFFFFFFFFFFFFFFFFFFFFFFFFFFFFFFFFFFFFFFFFFFFFFFFFFFFFFFFFFF NOT AND SUB PUSH2 0x31D JUMPI PUSH2 0x1F4 SWAP1 POP PUSH2 0x3AB JUMP JUMPDEST PUSH32 0x4D00000000000000000000000000000000000000000000000000000000000000 DUP3 PUSH31 0xFFFFFFFFFFFFFFFFFFFFFFFFFFFFFFFFFFFFFFFFFFFFFFFFFFFFFFFFFFFFFF NOT AND SUB PUSH2 0x370 JUMPI PUSH2 0x3E8 SWAP1 POP PUSH2 0x3AB JUMP JUMPDEST PUSH1 0x40 MLOAD PUSH32 0x8C379A000000000000000000000000000000000000000000000000000000000 DUP2 MSTORE PUSH1 0x4 ADD PUSH2 0x3A2 SWAP1 PUSH2 0x68F JUMP JUMPDEST PUSH1 0x40 MLOAD DUP1 SWAP2 SUB SWAP1 REVERT JUMPDEST SWAP2 SWAP1 POP JUMP JUMPDEST PUSH0 PUSH1 0x40 MLOAD SWAP1 POP SWAP1 JUMP JUMPDEST PUSH0 PUSH0 REVERT JUMPDEST PUSH0 PUSH0 REVERT JUMPDEST PUSH0 PUSH0 REVERT JUMPDEST PUSH0 PUSH0 REVERT JUMPDEST PUSH0 PUSH1 0x1F NOT PUSH1 0x1F DUP4 ADD AND SWAP1 POP SWAP2 SWAP1 POP JUMP JUMPDEST PUSH32 0x4E487B7100000000000000000000000000000000000000000000000000000000 PUSH0 MSTORE PUSH1 0x41 PUSH1 0x4 MSTORE PUSH1 0x24 PUSH0 REVERT JUMPDEST PUSH2 0x40F DUP3 PUSH2 0x3C9 JUMP JUMPDEST DUP2 ADD DUP2 DUP2 LT PUSH8 0xFFFFFFFFFFFFFFFF DUP3 GT OR ISZERO PUSH2 0x42E JUMPI PUSH2 0x42D PUSH2 0x3D9 JUMP JUMPDEST JUMPDEST DUP1 PUSH1 0x40 MSTORE POP POP POP JUMP JUMPDEST PUSH0 PUSH2 0x440 PUSH2 0x3B0 JUMP JUMPDEST SWAP1 POP PUSH2 0x44C DUP3 DUP3 PUSH2 0x406 JUMP JUMPDEST SWAP2 SWAP1 POP JUMP JUMPDEST PUSH0 PUSH8 0xFFFFFFFFFFFFFFFF DUP3 GT ISZERO PUSH2 0x46B JUMPI PUSH2 0x46A PUSH2 0x3D9 JUMP JUMPDEST JUMPDEST PUSH2 0x474 DUP3 PUSH2 0x3C9 JUMP JUMPDEST SWAP1 POP PUSH1 0x20 DUP2 ADD SWAP1 POP SWAP2 SWAP1 POP JUMP JUMPDEST DUP3 DUP2 DUP4 CALLDATACOPY PUSH0 DUP4 DUP4 ADD MSTORE POP POP POP JUMP JUMPDEST PUSH0 PUSH2 0x4A1 PUSH2 0x49C DUP5 PUSH2 0x451 JUMP JUMPDEST PUSH2 0x437 JUMP JUMPDEST SWAP1 POP DUP3 DUP2 MSTORE PUSH1 0x20 DUP2 ADD DUP5 DUP5 DUP5 ADD GT ISZERO PUSH2 0x4BD JUMPI PUSH2 0x4BC PUSH2 0x3C5 JUMP JUMPDEST JUMPDEST PUSH2 0x4C8 DUP5 DUP3 DUP6 PUSH2 0x481 JUMP JUMPDEST POP SWAP4 SWAP3 POP POP POP JUMP JUMPDEST PUSH0 DUP3 PUSH1 0x1F DUP4 ADD SLT PUSH2 0x4E4 JUMPI PUSH2 0x4E3 PUSH2 0x3C1 JUMP JUMPDEST JUMPDEST DUP2 CALLDATALOAD PUSH2 0x4F4 DUP5 DUP3 PUSH1 0x20 DUP7 ADD PUSH2 0x48F JUMP JUMPDEST SWAP2 POP POP SWAP3 SWAP2 POP POP JUMP JUMPDEST PUSH0 PUSH1 0x20 DUP3 DUP5 SUB SLT ISZERO PUSH2 0x512 JUMPI PUSH2 0x511 PUSH2 0x3B9 JUMP JUMPDEST JUMPDEST PUSH0 DUP3 ADD CALLDATALOAD PUSH8 0xFFFFFFFFFFFFFFFF DUP2 GT ISZERO PUSH2 0x52F JUMPI PUSH2 0x52E PUSH2 0x3BD JUMP JUMPDEST JUMPDEST PUSH2 0x53B DUP5 DUP3 DUP6 ADD PUSH2 0x4D0 JUMP JUMPDEST SWAP2 POP POP SWAP3 SWAP2 POP POP JUMP JUMPDEST PUSH0 DUP2 SWAP1 POP SWAP2 SWAP1 POP JUMP JUMPDEST PUSH2 0x556 DUP2 PUSH2 0x544 JUMP JUMPDEST DUP3 MSTORE POP POP JUMP JUMPDEST PUSH0 PUSH1 0x20 DUP3 ADD SWAP1 POP PUSH2 0x56F PUSH0 DUP4 ADD DUP5 PUSH2 0x54D JUMP JUMPDEST SWAP3 SWAP2 POP POP JUMP JUMPDEST PUSH32 0x4E487B7100000000000000000000000000000000000000000000000000000000 PUSH0 MSTORE PUSH1 0x32 PUSH1 0x4 MSTORE PUSH1 0x24 PUSH0 REVERT JUMPDEST PUSH32 0x4E487B7100000000000000000000000000000000000000000000000000000000 PUSH0 MSTORE PUSH1 0x11 PUSH1 0x4 MSTORE PUSH1 0x24 PUSH0 REVERT JUMPDEST PUSH0 PUSH2 0x5D9 DUP3 PUSH2 0x544 JUMP JUMPDEST SWAP2 POP PUSH2 0x5E4 DUP4 PUSH2 0x544 JUMP JUMPDEST SWAP3 POP DUP3 DUP3 ADD SWAP1 POP DUP1 DUP3 GT ISZERO PUSH2 0x5FC JUMPI PUSH2 0x5FB PUSH2 0x5A2 JUMP JUMPDEST JUMPDEST SWAP3 SWAP2 POP POP JUMP JUMPDEST PUSH0 PUSH2 0x60C DUP3 PUSH2 0x544 JUMP JUMPDEST SWAP2 POP PUSH2 0x617 DUP4 PUSH2 0x544 JUMP JUMPDEST SWAP3 POP DUP3 DUP3 SUB SWAP1 POP DUP2 DUP2 GT ISZERO PUSH2 0x62F JUMPI PUSH2 0x62E PUSH2 0x5A2 JUMP JUMPDEST JUMPDEST SWAP3 SWAP2 POP POP JUMP JUMPDEST PUSH0 DUP3 DUP3 MSTORE PUSH1 0x20 DUP3 ADD SWAP1 POP SWAP3 SWAP2 POP POP JUMP JUMPDEST PUSH32 0x496E76616C696420526F6D616E206E756D6572616C0000000000000000000000 PUSH0 DUP3 ADD MSTORE POP JUMP JUMPDEST PUSH0 PUSH2 0x679 PUSH1 0x15 DUP4 PUSH2 0x635 JUMP JUMPDEST SWAP2 POP PUSH2 0x684 DUP3 PUSH2 0x645 JUMP JUMPDEST PUSH1 0x20 DUP3 ADD SWAP1 POP SWAP2 SWAP1 POP JUMP JUMPDEST PUSH0 PUSH1 0x20 DUP3 ADD SWAP1 POP DUP2 DUP2 SUB PUSH0 DUP4 ADD MSTORE PUSH2 0x6A6 DUP2 PUSH2 0x66D JUMP JUMPDEST SWAP1 POP SWAP2 SWAP1 POP JUMP INVALID LOG2 PUSH5 0x6970667358 0x22 SLT KECCAK256 RETURNDATACOPY JUMPDEST DUP11 0xC2 0x1F DIV 0xD9 0x22 0xA6 SWAP12 PUSH6 0x976ACD7D5C3B DUP2 0xB4 0x4D COINBASE ADD JUMPDEST 0xA7 0xCB 0xAD PUSH22 0x815A6D67D564736F6C634300081E0033000000000000 "
		},
		"gasEstimates": {
			"creation": {
				"codeDepositCost": "352600",
				"executionCost": "391",
				"totalCost": "352991"
			},
			"external": {
				"fromRoman(string)": "infinite"
			},
			"internal": {
				"valueOf(bytes1)": "infinite"
			}
		},
		"methodIdentifiers": {
			"fromRoman(string)": "17a60fc4"
		}
	},
	"abi": [
		{
			"inputs": [
				{
					"internalType": "string",
					"name": "roman",
					"type": "string"
				}
			],
			"name": "fromRoman",
			"outputs": [
				{
					"internalType": "uint256",
					"name": "",
					"type": "uint256"
				}
			],
			"stateMutability": "pure",
			"type": "function"
		}
	]
}