{
	"data": {
		"bytecode": {
			"linkReferences": {},
			"object": "6080604052348015600e575f5ffd5b506108308061001c5f395ff3fe608060405234801561000f575f5ffd5b506004361061003f575f3560e01c8063805265e514610043578063b9830ff114610073578063fc36e15b1461007d575b5f5ffd5b61005d600480360381019061005891906103ad565b610099565b60405161006a919061040c565b60405180910390f35b61007b6100bf565b005b610097600480360381019061009291906103ad565b6101aa565b005b5f5f826040516100a99190610477565b9081526020016040518091039020549050919050565b5f5f90505b6001805490508110156101a7575f600182815481106100e6576100e561048d565b5b905f5260205f200180546100f9906104e7565b80601f0160208091040260200160405190810160405280929190818152602001828054610125906104e7565b80156101705780601f1061014757610100808354040283529160200191610170565b820191905f5260205f20905b81548152906001019060200180831161015357829003601f168201915b505050505090505f5f826040516101879190610477565b9081526020016040518091039020819055505080806001019150506100c4565b50565b5f5f826040516101ba9190610477565b90815260200160405180910390205490505f8111156102065780806101de90610544565b91505f836040516101ef9190610477565b90815260200160405180910390208190555061025c565b60015f836040516102179190610477565b908152602001604051809103902081905550600182908060018154018082558091505060019003905f5260205f20015f90919091909150908161025a919061072b565b505b5050565b5f604051905090565b5f5ffd5b5f5ffd5b5f5ffd5b5f5ffd5b5f601f19601f8301169050919050565b7f4e487b71000000000000000000000000000000000000000000000000000000005f52604160045260245ffd5b6102bf82610279565b810181811067ffffffffffffffff821117156102de576102dd610289565b5b80604052505050565b5f6102f0610260565b90506102fc82826102b6565b919050565b5f67ffffffffffffffff82111561031b5761031a610289565b5b61032482610279565b9050602081019050919050565b828183375f83830152505050565b5f61035161034c84610301565b6102e7565b90508281526020810184848401111561036d5761036c610275565b5b610378848285610331565b509392505050565b5f82601f83011261039457610393610271565b5b81356103a484826020860161033f565b91505092915050565b5f602082840312156103c2576103c1610269565b5b5f82013567ffffffffffffffff8111156103df576103de61026d565b5b6103eb84828501610380565b91505092915050565b5f819050919050565b610406816103f4565b82525050565b5f60208201905061041f5f8301846103fd565b92915050565b5f81519050919050565b5f81905092915050565b8281835e5f83830152505050565b5f61045182610425565b61045b818561042f565b935061046b818560208601610439565b80840191505092915050565b5f6104828284610447565b915081905092915050565b7f4e487b71000000000000000000000000000000000000000000000000000000005f52603260045260245ffd5b7f4e487b71000000000000000000000000000000000000000000000000000000005f52602260045260245ffd5b5f60028204905060018216806104fe57607f821691505b602082108103610511576105106104ba565b5b50919050565b7f4e487b71000000000000000000000000000000000000000000000000000000005f52601160045260245ffd5b5f61054e826103f4565b91507fffffffffffffffffffffffffffffffffffffffffffffffffffffffffffffffff82036105805761057f610517565b5b600182019050919050565b5f819050815f5260205f209050919050565b5f6020601f8301049050919050565b5f82821b905092915050565b5f600883026105e77fffffffffffffffffffffffffffffffffffffffffffffffffffffffffffffffff826105ac565b6105f186836105ac565b95508019841693508086168417925050509392505050565b5f819050919050565b5f61062c610627610622846103f4565b610609565b6103f4565b9050919050565b5f819050919050565b61064583610612565b61065961065182610633565b8484546105b8565b825550505050565b5f5f905090565b610670610661565b61067b81848461063c565b505050565b5b8181101561069e576106935f82610668565b600181019050610681565b5050565b601f8211156106e3576106b48161058b565b6106bd8461059d565b810160208510156106cc578190505b6106e06106d88561059d565b830182610680565b50505b505050565b5f82821c905092915050565b5f6107035f19846008026106e8565b1980831691505092915050565b5f61071b83836106f4565b9150826002028217905092915050565b61073482610425565b67ffffffffffffffff81111561074d5761074c610289565b5b61075782546104e7565b6107628282856106a2565b5f60209050601f831160018114610793575f8415610781578287015190505b61078b8582610710565b8655506107f2565b601f1984166107a18661058b565b5f5b828110156107c8578489015182556001820191506020850194506020810190506107a3565b868310156107e557848901516107e1601f8916826106f4565b8355505b6001600288020188555050505b50505050505056fea2646970667358221220ab3307359ca3e5da4ff0442c072ed7a776085ffcdf77704e761f0ccef6d2b0b564736f6c634300081e0033",
			"opcodes": "PUSH1 0x80 PUSH1 0x40 MSTORE CALLVALUE DUP1 ISZERO PUSH1 0xE JUMPI PUSH0 PUSH0 REVERT JUMPDEST POP PUSH2 0x830 DUP1 PUSH2 0x1C PUSH0 CODECOPY PUSH0 RETURN INVALID PUSH1 0x80 PUSH1 0x40 MSTORE CALLVALUE DUP1 ISZERO PUSH2 0xF JUMPI PUSH0 PUSH0 REVERT JUMPDEST POP PUSH1 0x4 CALLDATASIZE LT PUSH2 0x3F JUMPI PUSH0 CALLDATALOAD PUSH1 0xE0 SHR DUP1 PUSH4 0x805265E5 EQ PUSH2 0x43 JUMPI DUP1 PUSH4 0xB9830FF1 EQ PUSH2 0x73 JUMPI DUP1 PUSH4 0xFC36E15B EQ PUSH2 0x7D JUMPI JUMPDEST PUSH0 PUSH0 REVERT JUMPDEST PUSH2 0x5D PUSH1 0x4 DUP1 CALLDATASIZE SUB DUP2 ADD SWAP1 PUSH2 0x58 SWAP2 SWAP1 PUSH2 0x3AD JUMP JUMPDEST PUSH2 0x99 JUMP JUMPDEST PUSH1 0x40 MLOAD PUSH2 0x6A SWAP2 SWAP1 PUSH2 0x40C JUMP JUMPDEST PUSH1 0x40 MLOAD DUP1 SWAP2 SUB SWAP1 RETURN JUMPDEST PUSH2 0x7B PUSH2 0xBF JUMP JUMPDEST STOP JUMPDEST PUSH2 0x97 PUSH1 0x4 DUP1 CALLDATASIZE SUB DUP2 ADD SWAP1 PUSH2 0x92 SWAP2 SWAP1 PUSH2 0x3AD JUMP JUMPDEST PUSH2 0x1AA JUMP JUMPDEST STOP JUMPDEST PUSH0 PUSH0 DUP3 PUSH1 0x40 MLOAD PUSH2 0xA9 SWAP2 SWAP1 PUSH2 0x477 JUMP JUMPDEST SWAP1 DUP2 MSTORE PUSH1 0x20 ADD PUSH1 0x40 MLOAD DUP1 SWAP2 SUB SWAP1 KECCAK256 SLOAD SWAP1 POP SWAP2 SWAP1 POP JUMP JUMPDEST PUSH0 PUSH0 SWAP1 POP JUMPDEST PUSH1 0x1 DUP1 SLOAD SWAP1 POP DUP2 LT ISZERO PUSH2 0x1A7 JUMPI PUSH0 PUSH1 0x1 DUP3 DUP2 SLOAD DUP2 LT PUSH2 0xE6 JUMPI PUSH2 0xE5 PUSH2 0x48D JUMP JUMPDEST JUMPDEST SWAP1 PUSH0 MSTORE PUSH1 0x20 PUSH0 KECCAK256 ADD DUP1 SLOAD PUSH2 0xF9 SWAP1 PUSH2 0x4E7 JUMP JUMPDEST DUP1 PUSH1 0x1F ADD PUSH1 0x20 DUP1 SWAP2 DIV MUL PUSH1 0x20 ADD PUSH1 0x40 MLOAD SWAP1 DUP2 ADD PUSH1 0x40 MSTORE DUP1 SWAP3 SWAP2 SWAP1 DUP2 DUP2 MSTORE PUSH1 0x20 ADD DUP3 DUP1 SLOAD PUSH2 0x125 SWAP1 PUSH2 0x4E7 JUMP JUMPDEST DUP1 ISZERO PUSH2 0x170 JUMPI DUP1 PUSH1 0x1F LT PUSH2 0x147 JUMPI PUSH2 0x100 DUP1 DUP4 SLOAD DIV MUL DUP4 MSTORE SWAP2 PUSH1 0x20 ADD SWAP2 PUSH2 0x170 JUMP JUMPDEST DUP3 ADD SWAP2 SWAP1 PUSH0 MSTORE PUSH1 0x20 PUSH0 KECCAK256 SWAP1 JUMPDEST DUP2 SLOAD DUP2 MSTORE SWAP1 PUSH1 0x1 ADD SWAP1 PUSH1 0x20 ADD DUP1 DUP4 GT PUSH2 0x153 JUMPI DUP3 SWAP1 SUB PUSH1 0x1F AND DUP3 ADD SWAP2 JUMPDEST POP POP POP POP POP SWAP1 POP PUSH0 PUSH0 DUP3 PUSH1 0x40 MLOAD PUSH2 0x187 SWAP2 SWAP1 PUSH2 0x477 JUMP JUMPDEST SWAP1 DUP2 MSTORE PUSH1 0x20 ADD PUSH1 0x40 MLOAD DUP1 SWAP2 SUB SWAP1 KECCAK256 DUP2 SWAP1 SSTORE POP POP DUP1 DUP1 PUSH1 0x1 ADD SWAP2 POP POP PUSH2 0xC4 JUMP JUMPDEST POP JUMP JUMPDEST PUSH0 PUSH0 DUP3 PUSH1 0x40 MLOAD PUSH2 0x1BA SWAP2 SWAP1 PUSH2 0x477 JUMP JUMPDEST SWAP1 DUP2 MSTORE PUSH1 0x20 ADD PUSH1 0x40 MLOAD DUP1 SWAP2 SUB SWAP1 KECCAK256 SLOAD SWAP1 POP PUSH0 DUP2 GT ISZERO PUSH2 0x206 JUMPI DUP1 DUP1 PUSH2 0x1DE SWAP1 PUSH2 0x544 JUMP JUMPDEST SWAP2 POP PUSH0 DUP4 PUSH1 0x40 MLOAD PUSH2 0x1EF SWAP2 SWAP1 PUSH2 0x477 JUMP JUMPDEST SWAP1 DUP2 MSTORE PUSH1 0x20 ADD PUSH1 0x40 MLOAD DUP1 SWAP2 SUB SWAP1 KECCAK256 DUP2 SWAP1 SSTORE POP PUSH2 0x25C JUMP JUMPDEST PUSH1 0x1 PUSH0 DUP4 PUSH1 0x40 MLOAD PUSH2 0x217 SWAP2 SWAP1 PUSH2 0x477 JUMP JUMPDEST SWAP1 DUP2 MSTORE PUSH1 0x20 ADD PUSH1 0x40 MLOAD DUP1 SWAP2 SUB SWAP1 KECCAK256 DUP2 SWAP1 SSTORE POP PUSH1 0x1 DUP3 SWAP1 DUP1 PUSH1 0x1 DUP2 SLOAD ADD DUP1 DUP3 SSTORE DUP1 SWAP2 POP POP PUSH1 0x1 SWAP1 SUB SWAP1 PUSH0 MSTORE PUSH1 0x20 PUSH0 KECCAK256 ADD PUSH0 SWAP1 SWAP2 SWAP1 SWAP2 SWAP1 SWAP2 POP SWAP1 DUP2 PUSH2 0x25A SWAP2 SWAP1 PUSH2 0x72B JUMP JUMPDEST POP JUMPDEST POP POP JUMP JUMPDEST PUSH0 PUSH1 0x40 MLOAD SWAP1 POP SWAP1 JUMP JUMPDEST PUSH0 PUSH0 REVERT JUMPDEST PUSH0 PUSH0 REVERT JUMPDEST PUSH0 PUSH0 REVERT JUMPDEST PUSH0 PUSH0 REVERT JUMPDEST PUSH0 PUSH1 0x1F NOT PUSH1 0x1F DUP4 ADD AND SWAP1 POP SWAP2 SWAP1 POP JUMP JUMPDEST PUSH32 0x4E487B7100000000000000000000000000000000000000000000000000000000 PUSH0 MSTORE PUSH1 0x41 PUSH1 0x4 MSTORE PUSH1 0x24 PUSH0 REVERT JUMPDEST PUSH2 0x2BF DUP3 PUSH2 0x279 JUMP JUMPDEST DUP2 ADD DUP2 DUP2 LT PUSH8 0xFFFFFFFFFFFFFFFF DUP3 GT OR ISZERO PUSH2 0x2DE JUMPI PUSH2 0x2DD PUSH2 0x289 JUMP JUMPDEST JUMPDEST DUP1 PUSH1 0x40 MSTORE POP POP POP JUMP JUMPDEST PUSH0 PUSH2 0x2F0 PUSH2 0x260 JUMP JUMPDEST SWAP1 POP PUSH2 0x2FC DUP3 DUP3 PUSH2 0x2B6 JUMP JUMPDEST SWAP2 SWAP1 POP JUMP JUMPDEST PUSH0 PUSH8 0xFFFFFFFFFFFFFFFF DUP3 GT ISZERO PUSH2 0x31B JUMPI PUSH2 0x31A PUSH2 0x289 JUMP JUMPDEST JUMPDEST PUSH2 0x324 DUP3 PUSH2 0x279 JUMP JUMPDEST SWAP1 POP PUSH1 0x20 DUP2 ADD SWAP1 POP SWAP2 SWAP1 POP JUMP JUMPDEST DUP3 DUP2 DUP4 CALLDATACOPY PUSH0 DUP4 DUP4 ADD MSTORE POP POP POP JUMP JUMPDEST PUSH0 PUSH2 0x351 PUSH2 0x34C DUP5 PUSH2 0x301 JUMP JUMPDEST PUSH2 0x2E7 JUMP JUMPDEST SWAP1 POP DUP3 DUP2 MSTORE PUSH1 0x20 DUP2 ADD DUP5 DUP5 DUP5 ADD GT ISZERO PUSH2 0x36D JUMPI PUSH2 0x36C PUSH2 0x275 JUMP JUMPDEST JUMPDEST PUSH2 0x378 DUP5 DUP3 DUP6 PUSH2 0x331 JUMP JUMPDEST POP SWAP4 SWAP3 POP POP POP JUMP JUMPDEST PUSH0 DUP3 PUSH1 0x1F DUP4 ADD SLT PUSH2 0x394 JUMPI PUSH2 0x393 PUSH2 0x271 JUMP JUMPDEST JUMPDEST DUP2 CALLDATALOAD PUSH2 0x3A4 DUP5 DUP3 PUSH1 0x20 DUP7 ADD PUSH2 0x33F JUMP JUMPDEST SWAP2 POP POP SWAP3 SWAP2 POP POP JUMP JUMPDEST PUSH0 PUSH1 0x20 DUP3 DUP5 SUB SLT ISZERO PUSH2 0x3C2 JUMPI PUSH2 0x3C1 PUSH2 0x269 JUMP JUMPDEST JUMPDEST PUSH0 DUP3 ADD CALLDATALOAD PUSH8 0xFFFFFFFFFFFFFFFF DUP2 GT ISZERO PUSH2 0x3DF JUMPI PUSH2 0x3DE PUSH2 0x26D JUMP JUMPDEST JUMPDEST PUSH2 0x3EB DUP5 DUP3 DUP6 ADD PUSH2 0x380 JUMP JUMPDEST SWAP2 POP POP SWAP3 SWAP2 POP POP JUMP JUMPDEST PUSH0 DUP2 SWAP1 POP SWAP2 SWAP1 POP JUMP JUMPDEST PUSH2 0x406 DUP2 PUSH2 0x3F4 JUMP JUMPDEST DUP3 MSTORE POP POP JUMP JUMPDEST PUSH0 PUSH1 0x20 DUP3 ADD SWAP1 POP PUSH2 0x41F PUSH0 DUP4 ADD DUP5 PUSH2 0x3FD JUMP JUMPDEST SWAP3 SWAP2 POP POP JUMP JUMPDEST PUSH0 DUP2 MLOAD SWAP1 POP SWAP2 SWAP1 POP JUMP JUMPDEST PUSH0 DUP2 SWAP1 POP SWAP3 SWAP2 POP POP JUMP JUMPDEST DUP3 DUP2 DUP4 MCOPY PUSH0 DUP4 DUP4 ADD MSTORE POP POP POP JUMP JUMPDEST PUSH0 PUSH2 0x451 DUP3 PUSH2 0x425 JUMP JUMPDEST PUSH2 0x45B DUP2 DUP6 PUSH2 0x42F JUMP JUMPDEST SWAP4 POP PUSH2 0x46B DUP2 DUP6 PUSH1 0x20 DUP7 ADD PUSH2 0x439 JUMP JUMPDEST DUP1 DUP5 ADD SWAP2 POP POP SWAP3 SWAP2 POP POP JUMP JUMPDEST PUSH0 PUSH2 0x482 DUP3 DUP5 PUSH2 0x447 JUMP JUMPDEST SWAP2 POP DUP2 SWAP1 POP SWAP3 SWAP2 POP POP JUMP JUMPDEST PUSH32 0x4E487B7100000000000000000000000000000000000000000000000000000000 PUSH0 MSTORE PUSH1 0x32 PUSH1 0x4 MSTORE PUSH1 0x24 PUSH0 REVERT JUMPDEST PUSH32 0x4E487B7100000000000000000000000000000000000000000000000000000000 PUSH0 MSTORE PUSH1 0x22 PUSH1 0x4 MSTORE PUSH1 0x24 PUSH0 REVERT JUMPDEST PUSH0 PUSH1 0x2 DUP3 DIV SWAP1 POP PUSH1 0x1 DUP3 AND DUP1 PUSH2 0x4FE JUMPI PUSH1 0x7F DUP3 AND SWAP2 POP JUMPDEST PUSH1 0x20 DUP3 LT DUP2 SUB PUSH2 0x511 JUMPI PUSH2 0x510 PUSH2 0x4BA JUMP JUMPDEST JUMPDEST POP SWAP2 SWAP1 POP JUMP JUMPDEST PUSH32 0x4E487B7100000000000000000000000000000000000000000000000000000000 PUSH0 MSTORE PUSH1 0x11 PUSH1 0x4 MSTORE PUSH1 0x24 PUSH0 REVERT JUMPDEST PUSH0 PUSH2 0x54E DUP3 PUSH2 0x3F4 JUMP JUMPDEST SWAP2 POP PUSH32 0xFFFFFFFFFFFFFFFFFFFFFFFFFFFFFFFFFFFFFFFFFFFFFFFFFFFFFFFFFFFFFFFF DUP3 SUB PUSH2 0x580 JUMPI PUSH2 0x57F PUSH2 0x517 JUMP JUMPDEST JUMPDEST PUSH1 0x1 DUP3 ADD SWAP1 POP SWAP2 SWAP1 POP JUMP JUMPDEST PUSH0 DUP2 SWAP1 POP DUP2 PUSH0 MSTORE PUSH1 0x20 PUSH0 KECCAK256 SWAP1 POP SWAP2 SWAP1 POP JUMP JUMPDEST PUSH0 PUSH1 0x20 PUSH1 0x1F DUP4 ADD DIV SWAP1 POP SWAP2 SWAP1 POP JUMP JUMPDEST PUSH0 DUP3 DUP3 SHL SWAP1 POP SWAP3 SWAP2 POP POP JUMP JUMPDEST PUSH0 PUSH1 0x8 DUP4 MUL PUSH2 0x5E7 PUSH32 0xFFFFFFFFFFFFFFFFFFFFFFFFFFFFFFFFFFFFFFFFFFFFFFFFFFFFFFFFFFFFFFFF DUP3 PUSH2 0x5AC JUMP JUMPDEST PUSH2 0x5F1 DUP7 DUP4 PUSH2 0x5AC JUMP JUMPDEST SWAP6 POP DUP1 NOT DUP5 AND SWAP4 POP DUP1 DUP7 AND DUP5 OR SWAP3 POP POP POP SWAP4 SWAP3 POP POP POP JUMP JUMPDEST PUSH0 DUP2 SWAP1 POP SWAP2 SWAP1 POP JUMP JUMPDEST PUSH0 PUSH2 0x62C PUSH2 0x627 PUSH2 0x622 DUP5 PUSH2 0x3F4 JUMP JUMPDEST PUSH2 0x609 JUMP JUMPDEST PUSH2 0x3F4 JUMP JUMPDEST SWAP1 POP SWAP2 SWAP1 POP JUMP JUMPDEST PUSH0 DUP2 SWAP1 POP SWAP2 SWAP1 POP JUMP JUMPDEST PUSH2 0x645 DUP4 PUSH2 0x612 JUMP JUMPDEST PUSH2 0x659 PUSH2 0x651 DUP3 PUSH2 0x633 JUMP JUMPDEST DUP5 DUP5 SLOAD PUSH2 0x5B8 JUMP JUMPDEST DUP3 SSTORE POP POP POP POP JUMP JUMPDEST PUSH0 PUSH0 SWAP1 POP SWAP1 JUMP JUMPDEST PUSH2 0x670 PUSH2 0x661 JUMP JUMPDEST PUSH2 0x67B DUP2 DUP5 DUP5 PUSH2 0x63C JUMP JUMPDEST POP POP POP JUMP JUMPDEST JUMPDEST DUP2 DUP2 LT ISZERO PUSH2 0x69E JUMPI PUSH2 0x693 PUSH0 DUP3 PUSH2 0x668 JUMP JUMPDEST PUSH1 0x1 DUP2 ADD SWAP1 POP PUSH2 0x681 JUMP JUMPDEST POP POP JUMP JUMPDEST PUSH1 0x1F DUP3 GT ISZERO PUSH2 0x6E3 JUMPI PUSH2 0x6B4 DUP2 PUSH2 0x58B JUMP JUMPDEST PUSH2 0x6BD DUP5 PUSH2 0x59D JUMP JUMPDEST DUP2 ADD PUSH1 0x20 DUP6 LT ISZERO PUSH2 0x6CC JUMPI DUP2 SWAP1 POP JUMPDEST PUSH2 0x6E0 PUSH2 0x6D8 DUP6 PUSH2 0x59D JUMP JUMPDEST DUP4 ADD DUP3 PUSH2 0x680 JUMP JUMPDEST POP POP JUMPDEST POP POP POP JUMP JUMPDEST PUSH0 DUP3 DUP3 SHR SWAP1 POP SWAP3 SWAP2 POP POP JUMP JUMPDEST PUSH0 PUSH2 0x703 PUSH0 NOT DUP5 PUSH1 0x8 MUL PUSH2 0x6E8 JUMP JUMPDEST NOT DUP1 DUP4 AND SWAP2 POP POP SWAP3 SWAP2 POP POP JUMP JUMPDEST PUSH0 PUSH2 0x71B DUP4 DUP4 PUSH2 0x6F4 JUMP JUMPDEST SWAP2 POP DUP3 PUSH1 0x2 MUL DUP3 OR SWAP1 POP SWAP3 SWAP2 POP POP JUMP JUMPDEST PUSH2 0x734 DUP3 PUSH2 0x425 JUMP JUMPDEST PUSH8 0xFFFFFFFFFFFFFFFF DUP2 GT ISZERO PUSH2 0x74D JUMPI PUSH2 0x74C PUSH2 0x289 JUMP JUMPDEST JUMPDEST PUSH2 0x757 DUP3 SLOAD PUSH2 0x4E7 JUMP JUMPDEST PUSH2 0x762 DUP3 DUP3 DUP6 PUSH2 0x6A2 JUMP JUMPDEST PUSH0 PUSH1 0x20 SWAP1 POP PUSH1 0x1F DUP4 GT PUSH1 0x1 DUP2 EQ PUSH2 0x793 JUMPI PUSH0 DUP5 ISZERO PUSH2 0x781 JUMPI DUP3 DUP8 ADD MLOAD SWAP1 POP JUMPDEST PUSH2 0x78B DUP6 DUP3 PUSH2 0x710 JUMP JUMPDEST DUP7 SSTORE POP PUSH2 0x7F2 JUMP JUMPDEST PUSH1 0x1F NOT DUP5 AND PUSH2 0x7A1 DUP7 PUSH2 0x58B JUMP JUMPDEST PUSH0 JUMPDEST DUP3 DUP2 LT ISZERO PUSH2 0x7C8 JUMPI DUP5 DUP10 ADD MLOAD DUP3 SSTORE PUSH1 0x1 DUP3 ADD SWAP2 POP PUSH1 0x20 DUP6 ADD SWAP5 POP PUSH1 0x20 DUP2 ADD SWAP1 POP PUSH2 0x7A3 JUMP JUMPDEST DUP7 DUP4 LT ISZERO PUSH2 0x7E5 JUMPI DUP5 DUP10 ADD MLOAD PUSH2 0x7E1 PUSH1 0x1F DUP10 AND DUP3 PUSH2 0x6F4 JUMP JUMPDEST DUP4 SSTORE POP JUMPDEST PUSH1 0x1 PUSH1 0x2 DUP9 MUL ADD DUP9 SSTORE POP POP POP JUMPDEST POP POP POP POP POP POP JUMP INVALID LOG2 PUSH5 0x6970667358 0x22 SLT KECCAK256 0xAB CALLER SMOD CALLDATALOAD SWAP13 LOG3 JUMPF 0xDA4F CREATE PREVRANDAO 0x2C SMOD 0x2E 0xD7 0xA7 PUSH23 0x85FFCDF77704E761F0CCEF6D2B0B564736F6C63430008 0x1E STOP CALLER "
		},
		"gasEstimates": {
			"creation": {
				"codeDepositCost": "419200",
				"executionCost": "453",
				"totalCost": "419653"
			},
			"external": {
				"getVotes(string)": "infinite",
				"resetVotes()": "infinite",
				"vote(string)": "infinite"
			}
		},
		"methodIdentifiers": {
			"getVotes(string)": "805265e5",
			"resetVotes()": "b9830ff1",
			"vote(string)": "fc36e15b"
		}
	},
	"abi": [
		{
			"inputs": [
				{
					"internalType": "string",
					"name": "_name",
					"type": "string"
				}
			],
			"name": "getVotes",
			"outputs": [
				{
					"internalType": "uint256",
					"name": "count",
					"type": "uint256"
				}
			],
			"stateMutability": "view",
			"type": "function"
		},
		{
			"inputs": [],
			"name": "resetVotes",
			"outputs": [],
			"stateMutability": "nonpayable",
			"type": "function"
		},
		{
			"inputs": [
				{
					"internalType": "string",
					"name": "_name",
					"type": "string"
				}
			],
			"name": "vote",
			"outputs": [],
			"stateMutability": "nonpayable",
			"type": "function"
		}
	]
}